:020000040000FA
:0600000002010A021DAA24
:03002B0002221896
:030033000221FAAD
:03003B000222316D
:030043000221AEE9
:03005300021E206A
:03006B000221D49B
:10008300021C9BE5C754F84401F5C779012200001F
:100093000080FB120086B900030200F4E4792178A2
:1000A30008B800028004F709D8FCE479297802B87B
:1000B30000028004F709D8FCE490028178397909B9
:1000C3008002F0A3D8FCD9FA900AB9AA82AB839034
:1000D300013A780379048015E493A3AC82AD838A53
:1000E300828B83F0A3AA82AB838C828D83D8E9D9D8
:1000F300E77582E075839D740312011C7582917507
:100103008300740012011C75D00075813F7518813E
:10011300751902759F00020096C09FF59FE473D086
:100123009F22D083D082C09FE493C0E0740193C028
:10013300E0740293F59F22FF0000B400002800281A
:1001430000283075A000A000A000A000000800084F
:10015300E001F0001000100010001000100010006B
:1001630050005000500010001000D00700000000A5
:1001730000000F00010005003075070010000100AA
:1001830081FF0000FF3A0658064006FF02020208FC
:10019300025000A0000000E803020C93010000EEEF
:1001A300920208930100000E0B020293010000B2B9
:1001B300020208930100000F0B020093010000C824
:1001C30002020893010000100B023493010000CADD
:1001D30002020893010000110B02FE92080000CBFB
:1001E30002020893010000120B02FC9201000013AB
:1001F3000BFF0100FF20020C93010000F79202089D
:1002030093010000770B02FA920000000000020441
:100213009303000018036A0C6A0C6A0C6A0C6A0CDC
:100223006A0C6A0C6A0C6A0C6A0C6A0C6A0C6A0C1B
:100233003A0F520F340FFFFF0202020202020202C0
:1002430002010D0000001001020C93010000F49262
:10025300020893010000BA0B0224930100007807FF
:10026300020893010000BB0B0222930100009C9142
:10027300020893010000BC0B0220930100008E9141
:10028300020893010000BD0B021E93010000CB90F6
:10029300020893010000BE0B021C93010000A7900B
:1002A300020893010000BF0B021A93010000DD90C6
:1002B300020893010000C00B021893010000B990DB
:1002C300020893010000C10B021693010000809104
:1002D300020893010000C20B021293010000C30B3A
:1002E30001E803053F10FF0001307503020106001A
:1002F30000000000000000000000000000000000FB
:100303000000000000000000000000FFFF06008066
:100313000CE803140953696D706C65424C455065D4
:10032300726970686572616C051250002003020ADD
:10033300000201060302F0FF53696D706C652042F1
:100343004C45205065726970686572616CC6130014
:1003530000D813DE13CC130A4368617261637465BA
:100363007269737469632031000243686172616367
:10037300746572697374696320320008436861723B
:100383006163746572697374696320330010436831
:100393006172616374657269737469632034000206
:1003A300436861726163746572697374696320354C
:1003B30000020C93010000F192020893010000D99E
:1003C3000C022C93030000AA0A020693010000DA30
:1003D3000C020893010000EB0C022E93010000AB0A
:1003E3000A020693010000EC0C020893010000FDD1
:1003F3000C023093020000AC0A020693010000FED7
:100403000C0208930100000F0D023293000000ADAF
:100413000A020493030000AE0A02069301000010CF
:100423000D020893010000210D022893040000B47B
:100433000A020693010000220D120125BA8F03124E
:100443000125D18F03120125009003120125399054
:10045300031201256190031201258F9003120125D8
:10046300A69003120125BD9003120125D390031218
:100473000125FA90031201250D9103120125239101
:10048300031201253691031201255B910312012505
:10049300A097021201259F9802120125D4980212F7
:1004A3000125F598021201250599021201252699C5
:1004B30002120125329A02120125FF9A0212012526
:1004C300729B02120125F89B021201253B9C02122A
:1004D3000125729C02120125F89C02120125CA9D76
:1004E30002120125289E02120125409E02120125B7
:1004F300BA9E02120125BD9E02120125C09E021260
:100503000125679F021201257F9F02120125AF9FDC
:1005130002120125CF9F02120125BDA0021201255F
:1005230073A102120125DEDD0212012506DE02128D
:10053300012534DE021201256BDE02120125D3DE12
:10054300021201251CDF0212012567DF02120125B9
:10055300A5DF02120125E2DF0212012510E00212DB
:100563000125B7E002120125C1E002120125CEE008
:100573000212012501E102120125C3E10212012544
:10058300CFE102120125E7E102120125F1E1021296
:100593000125FF98031201250D99031201252599C1
:1005A300031201253D9903120125BDB10112012555
:1005B3005BB201120125D3B201120125E8B3011286
:1005C300012522B401120125CBB401120125A0B5E6
:1005D3000112012504B7011201255BB701120125A0
:1005E300E2B701120125C9B80112012516B901129A
:1005F3000125A4B901120125C8B9011201259DBB2A
:1006030001120125DEBB0112012500BC01120125E7
:1006130081BC011201256BBD0112012531BE0112FE
:100623000125D0C102120125A2C2021201254BC32A
:10063300021201258EC3021201251BC402120125D9
:10064300A7C40212012588C502120125B7C50212EB
:100653000125B3C602120125FBC602120125FDC7FF
:100663000212012541C80212012567C802120125A1
:10067300BB9B03120125F9F2021201250FF30212AB
:10068300012535F3021201255DF40212012567F4F9
:1006930002120125C0F502120125C0F6021201253E
:1006A3004CCF0212012581D002120125B4D00212CF
:1006B3000125FED002120125BCD202120125389376
:1006C300011201259B9301120125E09401120125DA
:1006D300F094011201251395011201255E95011273
:1006E3000125039601120125F99601120125C397ED
:1006F300011201253B99011201257D990112012562
:100703001B9A01120125689A011201258E9A011282
:1007130001257C9C01120125819C01120125629E09
:1007230001120125B69E01120125189F0112012510
:10073300409F01120125E49F01120125A6A0011289
:100743000125D7A001120125DAA00112012522A15A
:100753000112012564A101120125CBA1011201257A
:100763002C89031201253F8903120125588903129D
:100773000125A389031201257E8A031201250D8B0E
:1007830003120125588B03120125A422001201250F
:10079300B02200120125E922001201252E230012A6
:1007A3000125E523001201256B2400120125D02425
:1007B30000120125FC240012012535250012012514
:1007C300492700120125252900120125102B0012AB
:1007D3000125472C00120125A72E00120125932F76
:1007E30000120125D93000120125E631001201253E
:1007F3000332001201253B3200120125553200124B
:100803000125BD3200120125573700120125F837A3
:100813000012012549380012012570380012012504
:10082300BE3800120125DC380012012530390012D0
:100833000125093A00120125903B00120125183CBD
:100843000012012534D9021201253ED902120125D5
:1008530009DA0212012524DA021201254ADA021208
:1008630001258EDA02120125C6DA02120125EFDA1A
:100873000212012568DB021201257DDB021201252C
:1008830092DB02120125C9DB02120125DDDB021214
:1008930001250EDC0212012548DC0212012574DC5D
:1008A30002120125CADC021201251EDD02120125F6
:1008B30067DD0212012591DD02120125B6DD021268
:1008C30001250DEF02120125D7EF02120125BAF01F
:1008D3000212012530F10212012572F102120125E3
:1008E3009FF20212012500800212012529800212C3
:1008F30001254280021201258781021201256582AA
:10090300021201258482021201251183021201259C
:10091300548302120125A18402120125408502128B
:100923000125BF87021201255688021201252A8953
:10093300021201250C8A02120125788B021201256D
:100943000B8C02120125F195031201255A9603120D
:100953000125AE9603120125D5960312012586E2E1
:1009630002120125F3E2021201253EE302120125E0
:1009730033E4021201252FE50212012519E60212C2
:100983000125DEA10212012520A202120125FAA2ED
:1009930002120125D3A302120125CEA402120125BE
:1009A300ADA50212012519A602120125E0A6021225
:1009B30001254BA702120125B2A702120125DDA7CB
:1009C300021201254EA802120125E1A802120125F7
:1009D3004AA9021201255FA902120125A7A9021241
:1009E3000125C0A90212012525AA0212012528AA60
:1009F300021201254E83031201257683031201257A
:100A0300B48303120125728403120125DD840312CA
:100A13000125F9840312012521850312012551853E
:100A230003120125608503120125DA8503120125CE
:100A330000860312012595A20112012532A4011299
:100A4300012518A601120125E2A60112012529A7F5
:100A53000112012570A70112012582A701120125A8
:100A6300C2A701120125F1A7011201253DA8011218
:100A7300012575A801120125A3A801120125F4A8D7
:100A83000112012583A90112012571AC011201256F
:100A93004BAE0112012587AE01120125E1AF011210
:100AA300012528B0011201259DB001120125EBB0EB
:100AB3000112012522B101120125C9760012012577
:100AC300E67600120125807C00120125827D00124A
:100AD3000125FC7E00120125AA7F00120125B150D9
:100AE30000120125FA500012012527510012012599
:100AF3005A5100120125675100120125735100124A
:100B030001258551001201255A5200120125B852C0
:100B130000120125ED52001201258954001201250E
:100B2300D65400120125FA5400120125675500120C
:100B330001250C5600120125C856001201254757FE
:100B4300001201250B58001201251A580012012525
:100B53009B58001201253A59001201256C590012C5
:100B63000125075A00120125655A001201259F5AD3
:100B730000120125205B00120125E95B001201250B
:100B8300925C00120125195D00120125715D0012AE
:100B93000125D25D00120125FB5D00120125B15E26
:100BA30000120125FB5F001201253E6000120125A2
:100BB3005B60001201257A6000120125C5600012F6
:100BC3000125EA60001201251361001201258261EB
:100BD30000120125C46100120125C862001201251B
:100BE3006263001201252E6400120125476400127E
:100BF300012548F6011201259BF601120125A7F6EE
:100C0300011201257CF701120125A3F70112012529
:100C1300DEF7011201254AF8011201257EF80112BF
:100C23000125B7F801120125CFF80112012528F992
:100C33000112012541F9011201258AF90112012549
:100C43009DF901120125B7F901120125CDF9011210
:100C53000125E9FA01120125FAFB0112012547FDDD
:100C6300011201252CFE01120125F97F0012012535
:100C730062E90112012596E90112012501ED011234
:100C830001254BEE0112012515EF011201259FF0FD
:100C9300011201257AF101120125B4F10112012596
:100CA300D7F10112012519F20112012522F20112D5
:100CB30001256CF20112012576F20112012522F3BE
:100CC30001120125F6F3011201254AF4011201254F
:100CD300ACF401120125FFF4011201252EF50112D6
:100CE30001256DF501120125796400120125D36CEC
:100CF30000120125D96C00120125947200120125FE
:100D03007A760012012500800312012576800312F2
:100D130001258C8003120125C9800312012501815D
:100D2300031201257E8103120125B98103120125D6
:100D33003482031201257082031201257982031282
:100D430001258582031201259F8203120125C48296
:100D530003120125DA82031201251E8303120125E2
:100D630072D40212012585D4021201259FD40212E6
:100D73000125C8D4021201250BD5021201254AD53B
:100D83000212012588D502120125EDD50212012593
:100D930002D6021201250DD6021201251AD602121D
:100DA300012531D6021201253FD6021201254AD66A
:100DB3000212012556D60212012569D60212012517
:100DC30074D60212012597D60212012540D70212CA
:100DD300012550D7021201256AD70212012587D7B0
:100DE30002120125A3D702120125C8D70212012539
:100DF300D2D702120125E6D70212012505D8021225
:100E0300012566D8021201256CD80212012572D879
:100E13000212012578D80212012584D80212012575
:100E2300B7D802120125E9CE011201256BCF0112B9
:100E3300012514D0011201255CD1011201256AD3C9
:100E43000112012550D40112012585D40112012577
:100E5300A7D40112012550D50112012520D7011273
:100E6300012549D701120125C1D701120125F3D765
:100E73000112012500D8011201254BD801120125C9
:100E83006FD801120125C0DA01120125CADB011254
:100E9300012526DC0112012566C00112012577C157
:100EA300011201255BC20112012565C20112012550
:100EB30087C20112012593C20112012537C4011211
:100EC300012564C4011201257AC501120125CFC58C
:100ED300011201251EC701120125F3C701120125C5
:100EE3004FC801120125BAC801120125EFC801122A
:100EF300012532C901120125FCCB0112012514CCB5
:100F030001120125A5CC01120125B3CC0112012543
:100F130000CD011201250ECD011201257ACD01125A
:100F23000125F5CD011201254CCE01120125828C3C
:100F330002120125A48C02120125B58E021201258D
:100F43007491021201259E92021201255C930212F2
:100F530001254894021201251FFE0212012544FEB9
:100F630002120125BAFE02120125B3BA02120125AB
:100F7300BCBA02120125C5BA021201259DBB021299
:100F830001254EBD021201257EBD02120125A9BD18
:100F930002120125D9BD0212012504BE0212012548
:100FA30038BE0212012564BE02120125A7BE021239
:100FB3000125D2BE0212012519BF021201256EBFFF
:100FC30002120125B0BF021201250AC00212012537
:100FD30035C00212012584C002120125B4C00212D9
:100FE3000125DFC0021201250DC10212012530C106
:100FF30002120125449C03120125709C0312012552
:101003009D9C03120125A79C03120125B79C031283
:10101300012582B2021201258CB202120125CDB242
:101023000212012516B30212012550B30212012543
:10103300A6B302120125C7B30212012576B6021226
:1010430001257FB602120125D3B602120125FCB693
:101053000212012506B70212012574B702120125F7
:1010630004B8021201255FB8021201258DB80212DD
:10107300012515B90212012554B90212012589B9B6
:10108300021201259BB902120125BAB902120125E8
:10109300C3B90212012585BA021201250898031269
:1010A3000125C98D03120125FF8D03120125338EFE
:1010B30003120125808F03120125C19C0312012510
:1010C300D79C03120125E19C031201252B9D0312DA
:1010D3000125DBE602120125EEE602120125B2E745
:1010E30002120125F1E7021201250EE80212012581
:1010F30047E80212012594E802120125C6E802120C
:101103000125FDE8021201257C94031201259F9419
:1011130003120125CE9403120125669503120125BE
:10112300A895031201254886031201256D86031233
:1011330001259786031201258A9D031201257F3C11
:10114300001201255D3E00120125FC3F001201251E
:10115300A74000120125274100120125AC410012CE
:101163000125D5410012012527420012012502461F
:10117300001201257946001201259047001201252E
:10118300CA47001201250B480012012552490012DB
:101193000125A84900120125F14900120125604AE1
:1011A30000120125CC4A00120125FD4A0012012537
:1011B300154B001201252E4C001201253E4C001246
:1011C3000125F44D001201250B4E001201253D4E61
:1011D30000120125DF4F0012012573500012012573
:1011E300D69903120125E79903120125339E0312B1
:1011F3000125729E03120125E9FF01120125239B9C
:1012030003120125339B031201254B9B0312012576
:10121300B19B031201250697031201258B97031235
:101223000125EF97031201250593031201252E9340
:1012330003120125969303120125E7930312012557
:1012430042940312012510EB0212012535EB021221
:10125300012552EB021201256FEB0212012594EBDB
:1012630002120125B5EB02120125DFEB0212012563
:101273009CEC021201251AED0212012541ED021226
:1012830001254BED0212012584EE02120125D09EA9
:1012930003120125CAF6021201255AF7021201258B
:1012A300E3F7021201257FF80212012510F9021259
:1012B3000125C0F902120125CEF9021201254CFACB
:1012C300021201255FFA0212012575FA02120125A5
:1012D3007FFA0212012592FA02120125879A03125C
:1012E3000125899A031201250D9B03120125189BE1
:1012F300031201256D9103120125BF9103120125EC
:101303003292031201259F9203120125828B03124D
:101313000125AC8B031201257B8C03120125578D0C
:10132300031201254CAA0212012518AB0212012552
:1013330059AB0212012593AB02120125F1AB021244
:10134300012545AC02120125A3AC0212012539ADDA
:101353000212012541AE02120125CBAF0212012573
:1013630069B002120125D0B002120125E3B00212C6
:101373000125D7B10212012520B20212012573DC27
:1013830001120125A5DF0112012536E10112012514
:101393008DE101120125AAE1011201252AE20112C0
:1013A3000125A6E30112012575E401120125E2E7F7
:1013B30001120125CCE801120125DCC80212012526
:1013C30057CB0212012505CC021201252ACD0212A8
:1013D30001259CCD021201251DCE0212012581CECD
:1013E3000212012508CF0212012595FA02120125E6
:1013F300DAFA02120125F7FA02120125ADFB0212F5
:10140300012500FC02120125D0FC02120125E6FD94
:1014130002120125CC7F001201257C9E03120125B7
:10142300D8FF02120125B29E03E066701008A3E004
:1014330066700A08A3E066700408A3E06622C3E7A7
:10144300960809E7960809E7960809E79622C3E094
:101453009608A3E09608A3E09608A3E09622C008A6
:10146300C3E096F50808A3E096420808A3E0964275
:101473000808A3E09645087001D3D008220808089D
:10148300EAC0E0EBC0E086F0E7A4FA180986F0E7CB
:10149300A42AFA180986F0E7A42AFA180986F0E7BD
:1014A300A42AFA1986F0E7A4FBE5F02AFA190886BC
:1014B300F0E7A42BFBE5F03AFA190886F0E7A42B32
:1014C300FBE5F03AFA18180986F0E7A4C5F02BFB00
:1014D300E43AFA1908E7C5F0C6A426F6E5F03BFBA3
:1014E300E43AFA1886F0E7A4F6E5F00826F6E43BBA
:1014F30008F6E43A08F6D0E0FBD0E0FA22E4CFC0E5
:10150300E0E4CEC0E0E4CDC0E0E4CCC0E075F02080
:10151300C3E633F608E633F608E633F608E633F6B1
:10152300181818EC33FCED33FDEE33FEEF33FFC335
:10153300EC9709ED9709EE9709EF97191919400FE1
:10154300FFEC97FC09ED97FD09EE97FE191906D5F7
:10155300F0BEECF709EDF709EEF709EFF7191919E2
:10156300D0E0FCD0E0FDD0E0FED0E0FF2260160822
:101573000808C6C313C618C613C618C613C618C6AA
:1015830013C6D5E0EA227009080808226016181865
:1015930018C6C333C608C633C608C633C608C6331F
:1015A300C6D5E0EA22E627F60809E637F60809E693
:1015B30037F60809E637F622E026F608A3E036F602
:1015C30008A3E036F608A3E036F622E026F008A3E7
:1015D300E036F008A3E036F008A3E036F022C3E6D5
:1015E30097F60809E697F60809E697F60809E697D5
:1015F300F622C3E096F008A3E096F008A3E096F085
:1016030008A3E096F022E056F608A3E056F608A3F6
:10161300E056F608A3E056F622E056F008A3E0569B
:10162300F008A3E056F008A3E056F022E0F608A382
:10163300E0F608A3E0F608A3E0F622E6F008A3E646
:10164300F008A3E6F008A3E6F022E0FAA3E0FBA388
:10165300E0FCA3E0FD22EAF0A3EBF0A3ECF0A3EDA2
:10166300F022CAC0E0E6F0A308DAFAD0E0FA22CA10
:10167300C0E0E0A3C582CCC582C583CDC583F0A3FA
:10168300C582CCC582C583CDC583DAE6D0E0CA2244
:10169300C3E498F8E499F91216D48026C3E49AFABD
:1016A300E49BFBE920E7E91216D4E498F8E499F9FE
:1016B30022C3E498F8E499F91216D4E498F8E4996B
:1016C300F9C3E49AFAE49BFB22EB20E7CFE920E796
:1016D300E0B90010BB0008E88AF084F8AAF022E41D
:1016E300FBC8FA22EB70227B10C833C8C933C93355
:1016F3005007C39AC3DBF280069A50012ADBEAC87B
:1017030033F4C8C933F4C9FA2275F008E4C833C8FE
:10171300C933C933C99AC99B5004C92AC93BD5F0F7
:10172300ECFBC833F4C8E4C9FA22600D08C6A2E78B
:1017330013C618C613C6D5E0F322600C08C6C3133C
:10174300C618C613C6D5E0F422700422600D18C66D
:10175300C333C608C633C6D5E0F41822251810AF24
:1017630008F518400215198008F51840021519D21A
:10177300AF22C0D0251810AF08F518500205198004
:1017830008F51850020519D2AFD0D0222518F582DA
:1017930010AF08F518400215198008F51840021516
:1017A30019D2AF851983222518F582E43519F583FB
:1017B30022E4732518C582C0E0E51934FFC583C050
:1017C300E0E518C3958224F810AF08858319858254
:1017D300188008858319858218D2AFCEF0A3E5203F
:1017E300F0A37808E608F0A3DEFAEFF0A3E581247E
:1017F300FAF8E608F0A3E608F0A3E608F0A3080861
:10180300E608F0A3E608F0A315811581D0E0FED029
:10181300E0F8158115811581E8C0E0EEC0E02225CE
:1018230018C582C0E0E51934FFC583C0E0E518C3DD
:10183300958224F910AF088583198582188008855D
:101843008319858218D2AFCEF0A3E520F0A37808E0
:10185300E608F0A3DEFAEFF0A3E58124FBF8E6083F
:10186300F0A3E608F0A30808E608F0A3E608F0A34F
:1018730015811581D0E0FED0E0F815811581E8C00F
:10188300E0EEC0E022851983851882E0A3FEE0A381
:10189300F5207808E0A3F608DFFAE0A3FFE0A3C091
:1018A300E0E0A3C0E0E0A3C0E0E0A3C0E0E0A3C0A9
:1018B300E010AF0885821885831980088582188512
:1018C3008319D2AFD083D082020122851983851870
:1018D30082E0A3FEE0A3F5207808E0A3F608DFFA90
:1018E300E0A3FFE0A3C0E0E0A3C0E0E0A3C0E0E02A
:1018F300A3C0E010AF08858218858319800885820C
:1019030018858319D2AFD083D08222C0D02518C5C1
:1019130082C0E0E51934FFC583C0E0E518C39582B2
:1019230024F310AF088583198582188008858319ED
:10193300858218D2AFC8F0A3E9F0A3EAF0A3EBF0D5
:10194300A37908E709F0A3D8FAECF0A3EDF0A3EE2E
:10195300F0A3EFF0A3D0E0F0A3D0E0F0A3D0E0F049
:10196300A3E520F0A3E5F0F0A3228519838518826F
:10197300E0C0E0A3E0F9A3E0FAA3E0FBA37808E06A
:10198300F608A3DFFAE0FCA3E0FDA3E0FEA3E0FF7B
:10199300A3E0C0E0A3E0C0E0A3E0F5D0A3E0F5201E
:1019A300A3E0A3F5F010AF0885831985821880089A
:1019B300858319858218D2AFD082D083D0E0F8D046
:1019C300E03274048006740280027401C0E0F404FF
:1019D30012178FD0E01216652274048004740280FB
:1019E30000CCC0E0EDC0E0E518C39CCCAD195001BC
:1019F3001D10AF068C188D1980068C188D19D2AF67
:101A0300121672D0E0FDD0E0FC22D083D082E9C070
:101A1300E0E493A3C386F0C5F095F0F908E493A33B
:101A230086F0C5F095F0700BE493A3C3994005E9E4
:101A3300048002A3E475F002A42582F582E5F03563
:101A430083F583D0E0F9E493A3C0E0E493C0E022FC
:101A5300D083D082ECC0E0EDC0E0E493A3FCE49338
:101A6300A3FDED4C600D121A9FEC24FFFCED34FF37
:101A7300FD80EFE493A3FCE493A3FDED4C600D1212
:101A83001ADEEC24FFFCED34FFFD80EFD0E0FDD047
:101A9300E0FCE493A3C0E0E493C0E022C0E0C3E42D
:101AA3009396087401939618400FE49366700808A0
:101AB300740193661870007019A3A3C3E493960886
:101AC3007401939618A3A3400DD0E0D0E0D0E002B8
:101AD3001A8FA3A3A3A3A3A3D0E022C0E0C0F088DE
:101AE300F0E4936670080874019366187000A8F018
:101AF300A3A3700BD0F0D0E0D0E0D0E0021A8FA304
:061B0300A3D0F0D0E022A7
:101B0C0074F5121822EAFEEBFFEE2434F8EF3400E1
:101B1C00F988088909EE2435121C44F8EE24371292
:101B2C001C44F50AEC850AF0A4FCAAF0850AF0ED39
:101B3C00A42AFDE82CF8E43DF97A257B001216D492
:101B4C00EA850882850983F05407F87401B800020D
:101B5C008004C333D8FCC0E0E0131313541FF8EE19
:101B6C0028F8EF3400F9E8245DF582E93400F583B8
:101B7C00D0E0F8E0586008850882850983801DEE66
:101B8C002436121C44F5F0EA84A8F0EE28F8EF3461
:101B9C0000F9E82438F582E93400F583E0F97F0494
:101BAC000218CE74F5121822EAFEEBFFEE24341262
:101BBC001C44C0E0EE2435F582EF3400F583D0E010
:101BCC00F08E828F83A3A3A3A3A3E0FAA3E0FB8EE2
:101BDC00828F83A3A3A3A3A3A3A3E0FCA3E0FDECA8
:101BEC00C39AF50AED9BF50BEE2480F508EF340053
:101BFC00F509850882F583E06401702BEE2481F5EC
:101C0C0082EF3400F5831219E0121C4D7402121786
:101C1C0075E960137CFD7D04EEFAEFFB120B9885E1
:101C2C000882850983E4F0AC0AAD0BEEFAEFFB12E7
:101C3C001B0C1221A0021BAAF582EF3400F583E0E5
:101C4C0022C082C083851882851983E0F8A3E0F94D
:101C5C00C3EA9CEB9D5012C3EC98ED994019C3EA72
:101C6C0098EB99501279018010C3EA98EB9940F5E2
:101C7C00C3EC98ED9950EE7900D083D08222EAC360
:101C8C009CFAEB9DFB2200008521878522C622C091
:101C9C00E074EF12190E759B00906182E0A2E64091
:101CAC0003021D5CE591A2E64003021D5C7591BF29
:101CBC009003C2E064057008120D36120D428003C9
:101CCC00120D3C752100120DA8E99003C3F07900A8
:101CDC00120D9C120B027A017B009003C1E0F912E9
:101CEC001072907803E064426003021DA590055FBA
:101CFC00E014F06003021DA5C2AF121D0900782A82
:101D0C00D0E0F618D0E0F6E59F5407F970059092F4
:101D1C00878003909283780812162FE9C4C0E0786C
:101D2C0029E65508F50808E65509F509740B7808F5
:101D3C0012173DD0E02508F8906270E0A2E740F859
:101D4C00E8C333906272F0906270E0D2E0F08049A8
:101D5C00E0A2E55024E591A2E5501E7591DF9003B9
:101D6C00C2E0640D70139003E4E004F06428700288
:101D7C00E4F07A00E0F9120E1A906181E0A2E350CF
:101D8C0009E5E9A2E3500375E9F7A3E0A2E75009DE
:101D9C00E591A2E7500375917F7F0402196DC0E0B5
:101DAC00C0D0C082C083906183E0A2E05009E5BF3F
:101DBC00A2E0500375BFFEE0A2E15009E5BFA2E12D
:101DCC00500375BFFDE0A2E25009E5BFA2E250034B
:101DDC0075BFFBE0A2E35009E5BFA2E3500375BF5A
:101DEC00F7E0A2E45009E5BFA2E4500375BFEFE0B1
:101DFC00A2E55009E5BFA2E5500375BFDFE0A2E6FE
:101E0C005009E5BFA2E6500375BFBFD083D082D086
:101E1C00D0D0E032C0E074F212190EE5A7A2E45063
:101E2C000FE5A1A2E4500953A7EF75A1EF121E74A0
:101E3C00E5A7A2E5500CE5A1A2E5500653A7DF7576
:101E4C00A1DFE5A7A2E15009E5A1A2E1500375A12C
:101E5C00FDE5A7A2E2500CE5A1A2E2500653A7FBB8
:101E6C0075A1FB7F0102196D74F8121822752101FE
:101E7C009003C2E0640670077A007B00120D1EA26C
:101E8C00AFE433FED2AF9003C8E0640170187A203F
:101E9C007B009003C1E0F91210F67A207B009003CE
:101EAC00C1E0F9121078906182E0D2E6F090055E04
:101EBC00E0602185C62280169003C7E0640170089B
:101ECC00E5C654F84405F5C653BEFC121C947401C7
:101EDC00652160E4EEA2E092AF7F010218CE000013
:101EEC008E238F24858228858327851882851983E4
:101EFC00E0CEA3E0CF852882852783EBC9EAC8ED25
:101F0C00CBECCA75F010C3E833C8E933C9EA33CA5D
:101F1C00EB33CBC3EA9EF526EB9FF525B35004AB10
:101F2C0025AA26EC33CCED33CDD5F0DAAE23AF2495
:101F3C002274F11218228A088B098C0A8D0B740FEB
:101F4C001217AA780C12162F9092C778081216093D
:101F5C009092C7780C1216097808790C121441501B
:101F6C00157808790C1215E190929F78081214617B
:101F7C00401579018013780C79081215E190929F25
:101F8C00780C12146140EB79007F080218CE74EDC6
:101F9C001218228A088B098C0A8D0B74131217AA3B
:101FAC00780C12162F9092C778081216099092C7C7
:101FBC00780C121609780C79081214414011780823
:101FCC00790C1215E1AA08AB09AC0AAD0B8022758D
:101FDC0010007511007512007513017810790C1230
:101FEC0015E1781079081215A8AA10AB11AC12AD36
:101FFC00137F0C0218CE9092C7780812162F8A8283
:10200C008B83780812161C7F040218CE74F51218F4
:10201C00228C828D83780812162F8A828B83780803
:10202C001215F512206CC3E098F0A3E09912205E13
:10203C00401E9092C3780812162F8A828B837808E0
:10204C001215CE8E828F83E02420F0A3E0344EF064
:10205C0080A4F08E828F83C3E09420A3E0944E2260
:10206C00EA2404F8EB3400F9E8FEE9FF8C828D8356
:10207C00A3A3A3A3E0F8A3E0F98E828F832274F5C7
:10208C00121822E9FE900514E0FAA3E0FBEEC3332C
:10209C00F8E433F9746128F582749139F583E02AF8
:1020AC00F508A3E03BF50978081219C99092BF1204
:1020BC00164D121EEC74021217758A088B098C0AC5
:1020CC008D0B74107808121570AA08AB097F0402E6
:1020DC0018CE74F11218228A0C8B0D8C0E8D0F7485
:1020EC000F1217AAE0FAA3E0FB74111217AAE0F57D
:1020FC0008A3E0F50974131217AAE0FEA3E0FF7819
:10210C00081219C9EA2401F508EB3400F509E4F5C5
:10211C000AF50B780C790812148090929B780812AF
:10212C00162F780C7908121480AA0CAB0DAC0EADDE
:10213C000F121EEC74021217758B09EA4509600424
:10214C007A0180027A00EC2AFCED3400FDECF8ED0B
:10215C00F97A717B021216D488088909E4F50AF51C
:10216C000B8E828F83780812163EECF8EDF97A719B
:10217C007B021216D48A088B097405780812174C46
:10218C008E828F83A3A3A3A3E508F0A3E509F07FB8
:10219C00080218CEC082C083E9906000F0D083D0D2
:1021AC008222C0E074F212190EA2AFE433FED2AF59
:1021BC00C2C0E5D1A2E4500653D1EF1212D6EEA262
:1021CC00E092AF7F0102196DC0E074F212190EA2F9
:1021DC00AFE433FED2AFE589A2E150031212407591
:1021EC008900C2C5EEA2E092AF7F0102196DC0E07A
:1021FC0074F212190EA2AFE433FED2AFE58BA2E05B
:10220C005003121240758B00C2E880D8C0E0C0D0D9
:10221C00E8C0E0E5A8D2AFC2C7A2E792AFD0E0F821
:10222C00D0D0D0E032C0E0C0D0E8C0E0E9C0E0C01F
:10223C0008C009C082C083A2AFE433F9D2AF9009C1
:10224C00E0E0F8A3E0687008539AFBA374018026C1
:10225C00C2E99009E0E0F50874012508F0746025E6
:10226C0008F58274093400F583E0F5C19009E0E0CB
:10227C00C394804002E4F0E9A2E092AFD083D08214
:0F228C00D009D008D0E0F9D0E0F8D0D0D0E032BF
:10229C00FFFFFFFFFFFFFFFFC082C083E9900B76BB
:1022AC00F002252874F71217B6E99002E0F07C18BA
:1022BC007D037AFF7BFF12081A9002E174FFF0A3F2
:1022CC00F0A3E4F0A3F079051207A29002E0E0F984
:1022DC001206CA7A387B081209FA02323674F412E2
:1022EC0017B68A088B09EB548060309002E0E0F955
:1022FC0012105A8A0A8B0BAE0AAF0BEE4F60138E7C
:10230C00828F83E064B070031207BAEEFAEFFB120F
:10231C001048AA08E5096480FB80047A007B00025F
:10232C0024F774F21217B674FC12175FEAFEEBFF77
:10233C0074121217AA12371DEE4F70030223D174B8
:10234C00021217AAEEF0A3EF122732ECF0A3ED1253
:10235C002732AA82AB831206C4E9F50A706AE50833
:10236C00450960648E828F83123703EE4F60567A74
:10237C00067B001210AE8A0C8B0DA80CA90DE84937
:10238C007005750A13804188828983E41223DEEE7E
:10239C00F0A3EF12372EE508F0A3E509F09002E662
:1023AC001224659002E670051231E0801B1231CECA
:1023BC008003EAFCEBFD8C828D8312246570F38C18
:1023CC00828D8380E3750A02A90A740412177502C0
:1023DC00391DF0A31236D4A32274F21217B6890A4F
:1023EC00E975F017A4FEAFF09002E5E4F09002E37B
:1023FC00122465600A1210B49002E3E4F0A3F0EE2C
:10240C00FAEFFB1210AE8A088B09EA4509602FEE31
:10241C00FCEFFD79001210309002E3E508F0A3E523
:10242C0009F07B00800812244FE4F0A3F00BEBC3FF
:10243C00950A40F2E50A9002E5F0790080027913E2
:10244C0002391DEB75F017A4F8A9F09002E3E0280F
:10245C00FAA3E0398A82F58322122E72EA4B227497
:10246C00F41217B6740C1217AA1236F8FEE9FF759F
:10247C000800750900800CE5082401F508E509340D
:10248C0000F509C3E5089CE5099D503285080A85CD
:10249C00090B7403780A12174CEA250AF8EB350B72
:1024AC00F988828983A3A3A3A3A3A31232B5EE65F3
:1024BC000A7003EF650B70BFE8FAE9FB80047A0041
:1024CC007B00802774F41217B67900EAA2E0501B47
:1024DC0075084875099278081219C97C047D007A30
:1024EC00787B0B12079C74021217757F04021888F4
:1024FC00C082C0839002E612252F601C88828983DB
:10250C00A3A3E06A7003A3E06B8882898370E8A3BD
:10251C00A3A3A3122E6E80047A007B00D083D082FA
:10252C00020122123A03E8492274EE1217B674FC27
:10253C0012175FEAFEEBFF851882851983E4F0A37E
:10254C00F0EE24021231C0EE24051236DBEE240428
:10255C00F50EEF122AE7E024FE603924FC604624D5
:10256C00FE605224FE605E24FE700302264824FEA8
:10257C0070030226AC24FE70030226BB24FE7003FB
:10258C000226CA24FC70030226D924FE70030226FC
:10259C00E80227259002FF7417F0A3E412273A12E1
:1025AC000442022725851882851983AC82AD8312DB
:1025BC0007C00226F5851882851983AC82AD83127B
:1025CC0007C60226F5850C08850D0974021217AA98
:1025DC00AC82AD83850882850983122E6E1206E8C3
:1025EC008A0C8B0DAC0CAD0DEC4D603BE4F50CF591
:1025FC000D780C1219C9750CFF750D02780C121997
:10260C00C9750C00750D03780C1219C974081217D2
:10261C00AA1219E0123B7F121775E9F50C700B1218
:10262C002E6412045A800F750C018508828509836B
:10263C001227281231E0850C080226F874021217B2
:10264C00AAAC82AD83850C82850D83122C39603C3B
:10265C00850C82850D83A3A31219E07510FF7511EB
:10266C000278101219C9751000751103781012191F
:10267C00C974081217AA1219E0123B7F121775E9D8
:10268C00F509700B122E64120460800F7509018518
:10269C000C82850D831227281231E0850908804CA5
:1026AC00851882851983AC82AD831207CC803A855C
:1026BC001882851983AC82AD831207D2802B8518C2
:1026CC0082851983AC82AD831207D8801C85188251
:1026DC00851983AC82AD831207DE800D8518828547
:1026EC001983AC82AD831207E4E9F508E50860298B
:1026FC008E828F83A3E06414601F850E82850F8306
:10270C00E09002FF1227321239FF9003001231E0E1
:10271C00E508A312273A12043C0230CF123A038583
:10272C00188285198322F085188285198322F07C02
:10273C00FF7D02850A82850B83122E722274EE12A3
:10274C0017B674FC12175F8A0A8B0B8C0E8D0FEA6E
:10275C002405F508EB3400F5097C157D0079007A29
:10276C00FF7B02121030E5082402F50CE509123645
:10277C00DE85188285198385821085831178101265
:10278C0019C9850882850983A3A3A3A3122C30122F
:10279C0019C9E5082405F510E5093400F511781080
:1027AC001219C9850C82850D83122F851206E274CD
:1027BC00061217758A108B11AE10AF11E50A2402A0
:1027CC00F50AE50B1231C3EE4F700302290780178F
:1027DC0074021217AA122E6E88828983EAF0A3EB78
:1027EC00F09002FFE004F09002FFE0C39405400378
:1027FC00022907E4F510F51178101219C97510E8C3
:10280C0075110278101219C97510E975110278103A
:10281C001219C974061217AA1219E07910EEFCEFFE
:10282C00FD123B81121775E9705E8508828509835C
:10283C00A3A3A3A3A3A3A3E0F89002E8E0687048C5
:10284C00122C301219C97CE97D02E5082408FAE53E
:10285C00093400FB12102A7402121775E960298ED4
:10286C00828F83A3A3A3A3122E6E9002FFE0F51018
:10287C007402781012174C74002510F5827403350D
:10288C0011F583EAF0A3EBF074021217AA858210FB
:10289C0085831178101219C974021217AA1219E043
:1028AC00850C82850D83122E941217758A108B114C
:1028BC00AE10AF119002FFE0F510751100740278A4
:1028CC001012174C74FF2510F874023511F9888218
:1028DC008983A312246570030227D3E82403080814
:1028EC0008E93400F9EE4F60030227DC8882898303
:1028FC0074FFF0A3F09002FFE004F09002FFE060A0
:10290C000A122E6412044E7900800B850882850908
:10291C00831231D7790A0230CF74EA1217B674FEDB
:10292C0012175F8C128D13EA2405F50CEB123B6920
:10293C00123707750800750900EA2402F510EB340C
:10294C0000F51185188285198385820A85830B7899
:10295C000A1219C9850C82850D83A3A3A3A3122A7D
:10296C00FD1219C9E50C2405F50AE50D1231C378E1
:10297C000A1219C9850C82850D83122B011206E2ED
:10298C0074061217758A0A8B0BEA450B7003022A20
:10299C00A2EA2404F50EEB122AE71237078A828B7F
:1029AC0083A3A3A3E0F9851082851183122E78608E
:1029BC0003022AA2E4F514F51578141219C975143A
:1029CC00E875150278141219C97514E97515027891
:1029DC00141219C974061217AA1219E07913AC0A49
:1029EC00AD0B851082851183123B87121775E9F5A3
:1029FC00096003022AA29002E8E0F8E5087009E0F9
:102A0C002402900300F08014900300E0FCE8240200
:102A1C00FAE43400FBEA6C7001EB707E850882AA44
:102A2C0082122C279414122C1F506B850E82850F4A
:102A3C0083E0C0E074012A122ADED0E0F00508859C
:102A4C000E82850F83A3E0C0E085080A7401250A75
:102A5C00122ADED0E0F005089002E8122AFD1219C5
:102A6C00C97CE97D0285080A7401250A122AF11233
:102A7C0017759002E8E02508F50874FF6E70037472
:102A8C00FF6F6012EE24010EEF3400FFE508C394D3
:102A9C0014500302294FE5086013122E8285108210
:102AAC00851183122E6E12045479008014E509707E
:102ABC000375090A851282851383EEF0A3EFF0A942
:102ACC000974021217757F0E02188885080C7401A0
:102ADC00250CF58274033400F583223400F50F8540
:102AEC000E82F58322FA74033400FB121018740260
:102AFC002212373D22A3A3122B07221231CEFDEE58
:102B0C00FAEFFB2274EE1217B674FE12175F8C0EDE
:102B1C008D0FEA2405F50CEB1236DE750B009002D6
:102B2C00FFE4F0F50AEA2402F508EB3400F509801D
:102B3C00449002FFE0FA9002E8E0F8122C27941778
:102B4C00122C1F400D9002FFE0F87416C3989002EF
:102B5C00E8F0122C301219C97CE97D0274002AFAB3
:102B6C007403122AF41217759002E8E0F89002FF31
:102B7C00E028F0050AE50C2416F582E50D122AE290
:102B8C00E0F8E50AC39850749002FFE0C394165025
:102B9C006BE50AC333F8E433F9E50C28FEE50D398F
:102BAC00FF851882851983AC82AD838E828F831248
:102BBC002C397008750B011231D38050E4F510F5E7
:102BCC001178101219C97510E875110278101219C4
:102BDC00C97510E975110278101219C9740612170B
:102BEC00AA1219E07916850882850983123B87128F
:102BFC001775E9F50B7003022B3D80BB7CFF7D0242
:102C0C00850882850983122E6E120466A90B740244
:102C1C000230D1E99400C365D03322EA28F8E434B9
:102C2C0000F9E822E0F5107511007810221230C678
:102C3C008A108B11AC10AD11EC4D2274EA1217B640
:102C4C0074FC12175F8A0C8B0D8C128D13EA240501
:102C5C00F50AEB1231C3750800750900E50A240268
:102C6C00F510E50B3400F51174021217AA85820ECB
:102C7C0085830F780E1219C9850A82850B83A3A34D
:102C8C00A3A31236E31219C9E50A2405F50EE50BC8
:102C9C003400F50F780E1219C98510828511831234
:102CAC0031C9122E681206E274061217758A0E8B41
:102CBC000FAE0EAF0FE50C2402F50EE50D3400F54A
:102CCC000F80388882898374FFF00508122AD77424
:102CDC00FFF005089002E8E0F50C750D00780C1279
:102CEC0019C97CE97D0285080C7401250C122AF1A6
:102CFC001217759002E8E02508F508EE4F60278E54
:102D0C00828F83A3A3A3E0F9850E82850F83122EF5
:102D1C0078EE24041236DBE96027850C82850D835E
:102D2C00122E5A1231E0E5087003022E40122E8248
:102D3C00850E82850F83122E6E12046C7900022E82
:102D4C0055E4F514F51578141219C97514E87515B0
:102D5C000278141219C97514E97515027814121930
:102D6C00C974081217AA1219E07911EEFCEFFD854F
:102D7C000E82850F83123B87121775E9F509709A3D
:102D8C00850882AA82EA9002E87009E02404900384
:102D9C0000F08025E0F8900300E0F514E82404FC32
:102DAC00E43400FDEC65147001ED7081122C279455
:102DBC0012122C1F4003022D39850C82850D83E0E5
:102DCC00C0E074012A122ADED0E0F00508850C82DE
:102DDC00850D83A3E0C0E0122AD7D0E0122E9D858A
:102DEC00820C85830D780C1219C974041217AA125F
:102DFC0019E0851082851183122E941217758A0C96
:102E0C008B0DAE0CAF0D85080C7401250CF87403FA
:102E1C003400F9EE4F7003022CCF8518828519838C
:102E2C00E088828983122E9DA3E0C0E0122AD7D0BD
:102E3C00E0022CDDE509700375090A850A82850B11
:102E4C0083122E5A1231E0A9097404022ACF123AC5
:102E5C0003851282851383227CFF7D02850A82857D
:102E6C000B83122E7222E0FAA3E0FB22122E7212B6
:102E7C0006D0E9F50922900300E0F5F0E50884900E
:102E8C0002FFF07CFF7D0222122B071206EE740467
:102E9C0022F005088518828519832274EC1217B666
:102EAC0074FE12175F8A088B098C0E8D0FEA2405AD
:102EBC00FEEB3400FF1230B0EE24181236DBEA457C
:102ECC000B7003022F531230995029122F788A104D
:102EDC008B11EA4511606B7912AC0AAD0B85088237
:102EEC00850983122E6E8510828511831217B4E921
:102EFC00F50A7058E4F50AF50B780A1219C98E8296
:102F0C008F83A3A3E0F50A780A1219C9EE240312E1
:102F1C0031C0780A1219C98E828F83122F8512083C
:102F2C00087406121775E9F50A7021850C82850D57
:102F3C0083E0701F850882850983122E6E1204723D
:102F4C008011750A0E8009750A018004E50A600378
:102F5C001231D3850C82850D83E0600479008002E8
:102F6C00A90A74021217757F0C02188885188285BD
:102F7C001983122E721207F6221231CEFD850882A9
:102F8C00850983122E722274EE1217B674FE121774
:102F9C005F8A088B098C0C8D0DEA2405FEEB34003E
:102FAC00FF750E001230B0EA450B70030230771239
:102FBC003099502C122F788A0E8B0FEA450F604AED
:102FCC007912AC0AAD0B850882850983122E6E85A9
:102FDC000E82850F831217B4E9F50E600302307A66
:102FEC008508828509831232B5AA0AFB12308B70D0
:102FFC00147AFF7BFF12308B606C88828983E50A20
:10300C00F0A3E50BF0750A008007750E0E805F05C6
:10301C000A9002E5E0FAE50AC39A504AE50A75F00F
:10302C0017A4FAABF088828983A3A3E02AFAA3E061
:10303C003BFB8A828B831231C9EC4D70D2750A1717
:10304C00750B00780A1219C9EEFCEFFD12101874FA
:10305C0002121775EEFCEFFD850882850983122E8E
:10306C006E1204788014750E098003750E011239E6
:10307C00FB850C82850D831231E0A90E022C1A12ED
:10308C0007EA8A108B11A810A911E84922E5082437
:10309C0002F508E5093400F5098A828B83A3A3A302
:1030AC00E0A2E522851882851983AC82AD838E82DD
:1030BC008F831230C68A0A8B0B22E0FAA3E0FB1234
:1030CC0006E82274041217757F0A02188874EC1231
:1030DC0017B68C108D11EA2405F50CEB1236DE7543
:1030EC000F00EA2402F50AEB1231C3850A82F5833C
:1030FC00122E6E123C0D70030231B5750E008071EC
:10310C00850C82850D83E06401704F8E828F83A3C2
:10311C00A31219E08E828F83A3A3A3A3E0F51275EB
:10312C00130078121219C9EE2405F512EF3400F5CC
:10313C001378121219C9122E681208087406121785
:10314C0075E9F50F6014850C82850D83E4F0123956
:10315C00FB8510828511831231E07C177D0079008C
:10316C00EEFAEFFB1210308E828F83E4F0A3F005A1
:10317C000E9002E5E0F8E50EC398501EE50E75F0D2
:10318C0017A4F8A9F0850882850983A3A3123B73C1
:10319C001231C9EC4D600302310C8508828509831C
:1031AC0074FFF0A3F0E50F7006122E6812047EA9CE
:1031BC000F022F73F50AEF3400F50B22A31231CE58
:1031CC00FD22E0FCA3E0228E828F83123A03850E4F
:1031DC0082850F83E8F0A3E9F022C082C0839002BD
:1031EC00E1E06A7003A3E06B70067AE17B02800475
:1031FC007A007B0002252874F71217B67F00EF7552
:10320C00F003A4F8A9F0EC28F8ED39F98882898349
:10321C00E06A7003A3E06B7006E8FAE9FB800B0F21
:10322C00EFC3940240D87A007B007F0102188874A7
:10323C00F61217B61237EC70067A007B008007A3E3
:10324C00A3A3A3122E6E0238AD74F21217B6E9FEC8
:10325C00740E1217AA1232B574101217AA12371D57
:10326C008C828D83E06402703BA31239FF888289C3
:10327C0083E0F50CA3E0F9A80C74026870037429C0
:10328C00697021750C02750D00780C1219C978083B
:10329C001219C9780A1219C9EEF912082C740612FF
:1032AC0017758002790102391DE0F50AA3E0F50BD0
:1032BC002274E81217B674FB12175FE98518828521
:1032CC001983F08A168B178C0E8D0F741F1217AA88
:1032DC0012371D74211217AA1232B574231217AAB1
:1032EC001237077510008C828D83A3A3A3E0A2E490
:1032FC00502A741D1217AA122F7E8A828B83E582A4
:10330C00458370030233C9790AAC0EAD0FAA16AB14
:10331C00171217B4E9F51060030233CC850E8285C1
:10332C000F83E064026003023682A31239FF850822
:10333C0082850983A3858212858313E50E2406F505
:10334C000CE50F1236DE88828983E0FAA3E0F9EAF5
:10335C002400F514E439F5157814121A5301000001
:10336C0028012891330700022868340328D8330039
:10337C002992350129BA3502296135032992350480
:10338C002923368236EE4F703E850C82850D8312D2
:10339C0036F8FAE9FB8A828B83E0850A82850B83F7
:1033AC001237341219C98A828B83A31231CEFDAA2B
:1033BC0008AB091210187402121775800375100EE1
:1033CC00A9107405023B6175100B80F4EE4F70F779
:1033DC00850A82850B837401F012370D850882856E
:1033EC000983F07C007D00850E82850F83A3A3A347
:1033FC00A3E02401FAA3E03400FB1206E8EA4B60D8
:10340C00418A828B83E02402F8850A82850B83E053
:10341C0028F0EA2404F8EB3400F988828983E085EB
:10342C0012828513831237461237341219C98A82D5
:10343C008B831231C8E5082403FAE5093400FB023A
:10344C0033BF850A82850B83E02404F07C047D0065
:10345C007900AA12AB131210300233CCEE4F60037A
:10346C000233D312370DFEA3E0FF850A82850B834E
:10347C007404F0EE850882850983F0EF851282854D
:10348C001383F074031217AAAC82AD83EEFAEFFB30
:10349C001237DA700302353E8A828B83A3A312376C
:1034AC000374011217AA85820E85830F780E1219E8
:1034BC00C974051217AA1219E07CFF7DFF1206EEE3
:1034CC0074041217758B0FEA450F7033850C8285C7
:1034DC000D831236E31219C9850C82850D83A31254
:1034EC0019E07C027D007A0A7B9312051A7404128F
:1034FC001775E9700A74011217AA74FFF0A3F08E05
:10350C00828F83E064027034750C02750D00780CA8
:10351C001219C98E828F831231C8E5082404FAE58A
:10352C0009122AF4121775850A82850B83E024028E
:10353C00800974011217AAEEF0A3EFF074011217B0
:10354C00AA1236F4F074011217AAA31236ECA3A334
:10355C00A3F00233CCEE4F60030233D3850C82858B
:10356C000D831231C9AA16AB17120820850A828561
:10357C000B837402F0EA850882850983F085128238
:10358C00851383EB80CBEE4F60030233D312370DE0
:10359C00F8A3E0F9850A82850B837402F0E88508AC
:1035AC0082850983F0E985128285138380A3850CBB
:1035BC0082850D83122E6E121012EAFC8C82A88268
:1035CC00C39EE49F404BE86E7001EF70047C00805A
:1035DC001F851882851983E0FAEE2AFAEF3400FB76
:1035EC00C3EA98EB94005003E08004EECCC39CFC3F
:1035FC00EC850A82850B83F08C0A750B00780A1215
:10360C0019C9850C82850D83E02EFCA3E03F0233A3
:10361C00BA7510070233CCEE4F60030233D3850C1E
:10362C0082850D831239FF850A82850B837407F01E
:10363C00888289831236EC1236D4E0851282851387
:10364C0083F0E82402FAE93400FB8A828B83123679
:10365C00EC1237251236F4A312372E1236FDF0E891
:10366C002405F8E93400F9888289831236FDA31207
:10367C003746A302355A741D1217AA1237E5700388
:10368C000233C91239FF880C890DE8450D7003020D
:10369C0033C98E108F1178101219C9780A1219C9F2
:1036AC0078081219C974061217AAE0F9AC0EAD0FFE
:1036BC00AA16AB17850C82850D831217B4740612EB
:1036CC001775E9F5100233CCF088828983A322F5B3
:1036DC000CEF3400F50D22E0F50E750F00780E227C
:1036EC00E08508828509832212374D22123A03E8BD
:1036FC002212374DA3A322A3A3A3A3E0FEA3E0FFB2
:10370C0022850C82850D83E0F8A3E0F5838882E0A6
:10371C0022E0F508A3E0F50922A3A3F08A828B83AB
:10372C00A3221223E0A3A322F08A828B8312373DBB
:10373C0022E0F50A750B00780A221236D412374DA6
:10374C0022E0850882850983A3A32274EE1217B6A2
:10375C0074FE12175F8A0A8B0BECFAEDFB741412D1
:10376C0017AAE0F510A3E0F51174161217AAE0FEE3
:10377C0074181217AAE0F50EA3E0F50F85188285D0
:10378C001983AC82AD831237DA603E8518828519B5
:10379C00831237E5602FA3A312371DE50845096096
:1037AC0024780E1219C978101219C9EEF9AC0CADA7
:1037BC000DAA0AAB0B8508828509831217B4740411
:1037CC001217758006790E80027901022C1A1206E6
:1037DC00E88A0C8B0DEA450D22122E721237EC2260
:1037EC001207B48A828B83E58245832274F6121702
:1037FC00B674FE12175F740C1217AA1236F88518DD
:10380C0082851983F074011217AAE9F0E4F508F522
:10381C000978081219C975080278081219C97404B4
:10382C001217AA85820885830978081219C912080B
:10383C000874061217757402121775806474F712E7
:10384C0017B6EAFEEBFF89087C187D03120820EA04
:10385C005402600BA908EEFAEFFB1206DC80027929
:10386C000102323674F61217B674FF6A700374FFD5
:10387C006B701C7B00EB75F003A4F8A9F0EC28F836
:10388C00ED39F91238B20BEBC39402501480E612E6
:10389C0007F08A088B09A808A909E84960031238BF
:1038AC00B27F020218888882898374FF1223DEE4B7
:1038BC00F02274F61217B61207F08A828B83E58217
:1038CC0045836006A3A3E0FA80027A007B0080D1D6
:1038DC0074F21217B68A088B09ECFEEDFF740E1207
:1038EC0017AAE0F50A123922701CEEFCEFFD7AFFE4
:1038FC007BFF12392270047911801688828983E546
:10390C0008F0A3E509F088828983A3A3E50AF0797E
:10391C00007F060218881207F08A0C8B0DA80CA9E0
:10392C000DE8492274EE1217B6EAFEEBFF8C088DF7
:10393C0009890C74121217AA1239FF74141217AADF
:10394C001231C974161217AA122E6E750D00EC4D99
:10395C0060030239F37402650C60030239EE88824D
:10396C0089831231CEF9EC2400F50EE439F50FEA17
:10397C00F4F8EBF4F9EC58F8E50F59F9E849705DF7
:10398C00E5082406F8E5093400F9880A890B8882D1
:10399C00F583122B031208208A108B11E50E65108B
:1039AC007004E50F65116042780E1219C9850A8200
:1039BC00850B83122B031208267402121775E9F576
:1039CC000D7027780E1219C9850882850983A3A367
:1039DC00122B0112083E7402121775800D750D80A2
:1039EC008008750D0D8003750D0BA90D0230D48E5A
:1039FC00828F83123A0322E0F8A3E0F92274E812D2
:103A0C0017B674E712175F851882851983EAF0A33D
:103A1C00EBF08C168D17890E74311217AAE0F51283
:103A2C00A3E0F51374331217AAE0F514A3E0F5150F
:103A3C0074351217AAE0F50F750800750900E50931
:103A4C0075F003A4F8A9F0851882851983123B73CD
:103A5C00E0F47003A3E0F47003023B51EE2402F592
:103A6C000CEF123B69E07003023B5185160A851777
:103A7C000B780A1219C9AC14AD15AA12AB131207A4
:103A8C00A874021217758A0A8B0BEA450B70030295
:103A9C003B51E4F510F51178101219C97406121780
:103AAC00AA85821085831178101219C9740912170E
:103ABC00AA85821085831178101219C98512828506
:103ACC001383A3A3A3A31219E07914AC0AAD0B8E34
:103ADC00828F83123B87121775E97069850A82857C
:103AEC000B83A3A3A3A31239FF74021217AA1231DA
:103AFC00E0850C82850D83E0A2E05018A90E7402BB
:103B0C001217AAAC82AD838E828F83122E6E12078F
:103B1C0000E94208850C82850D83E0A2E15026E580
:103B2C000FF50A780A1219CDA90E74031217AAAC54
:103B3C0082AD838E828F83122E6E1206FA7401125E
:103B4C001775E942080509E509C394025003023AC6
:103B5C004AA90874191217757F100218883400F5D9
:103B6C000D850C82F58322E028FEA3E039FF8E82BE
:103B7C008F83227916850A82850B83122E72120886
:103B8C000274082274F21217B6EAFEEBFF890B746A
:103B9C0001650B600E7402650B70637901120A18D3
:103BAC00E9705BEEFAEFFB123C0D6047750A008082
:103BBC000B7C177D007900121030050A9002E5E0AD
:103BCC00F8E50AC3985021E50A75F017A4F8A9F096
:103BDC00850882850983A3A3E028FAA3E039FB8A30
:103BEC00828B8312252F70C985088285098374FF07
:103BFC00F0A3F07C187D03EEFAEFFB12081A0239E1
:103C0C001D1207EA8A088B09EA45092274F2121779
:103C1C00B68A088B09ECFEEDFF740E1217AA12324D
:103C2C00B5900B76E0F4603D7A097B00121042EA05
:103C3C004B60328A828B8374B1F0A3E4123727A3D2
:103C4C00123725A3E508F0A3E509123C74EEF0A3A6
:103C5C00EF123C74A3A3E50AF0A3E50BF0900B76EE
:103C6C00E0F912104E02391DF08A828B83A3A3A3B4
:103C7C00A3A32274F41217B6E9FF7E008A088B09FD
:103C8C007808121A0D00040D303EB23CCE3CE33CD9
:103C9C00F83C0D3D223D3E3D573D693D973DB93DBC
:103CAC00D53DF13D0F3E74016F70128C828D83E017
:103CBC00C394035008E0900C62F0023E4E7E180252
:103CCC003E4E74026F70F68C828D831245DE900C22
:103CDC0063E8F0A3E980E274016F70E18C828D835C
:103CEC00E0C3940250D7E090078180CD74016F70CF
:103CFC00CC8C828D83E0C3940550C2E09007828007
:103D0C00B874016F70B78C828D83E0C3940250AD90
:103D1C00E090078380A374106F70A27508108E0951
:103D2C0078081219C97A847B071249A212177502F6
:103D3C003E4E74016F70868C828D83E0C39402407A
:103D4C0003023CC9E0900794023CC574016F600308
:103D5C00023CC98C828D83E0900C66808D74046F5C
:103D6C006003023CC99092BF780812162F8D838C89
:103D7C008278081214514003023CC98C828D831244
:103D8C00164D900796121659023E4EEF6003023CF8
:103D9C00C9120688E9700E1211AA79501213781202
:103DAC00119E023E4E9008297401023CC574016FAD
:103DBC006003023CC98C828D83E0C39402400302F1
:103DCC003CC9E0900795023CC574016F6003023C4E
:103DDC00C98C828D83E0C3940A4003023CC9E090F5
:103DEC000C65023CC574016F6003023CC98C828D6A
:103DFC0083E024F9C3940A4003023CC9E0900C67A9
:103E0C00023CC574016F6003023CC9900828E0F8BD
:103E1C008C828D83E0900828F0E87026E0640170B5
:103E2C0021023DABC3EA9426EB9400501374026F4D
:103E3C00700E8C828D831245D8120526E9FE800205
:103E4C000E0EEEF9023E58740E1217757F0402180E
:103E5C008874F01217B674CC12175F8C0A8D0B7421
:103E6C00441217AAE0FE74201217AAAC82AD837517
:103E7C00839275824E740612167274201217AAACB5
:103E8C0082AD8312114AE9F508C3940A4003023F3C
:103E9C00C175F006E9A4F50974261217AAAC82AD17
:103EAC00837A0E74202509124A5A7009743212173B
:103EBC00AAE0FF80027F00900C62E0640270047440
:103ECC00018001E4F50D780D1219CDEEFDEFFCA982
:103EDC0008AA0AAB0B1211D474011217757C147D4D
:103EEC00007900740C1217AAAA82AB8312103074DA
:103EFC000C1217AAAC82AD837A1074242509124ACD
:103F0C005A70377C1079FF740C1217AA12478770FD
:103F1C0029741C1217AAAC82AD837A047425250966
:103F2C00F9121372740C1217AAAC82AD83EFA2E0D3
:103F3C00E433F9AA0AAB0B1205B0851882851983F4
:103F4C00AC82AD837A0C74702508124A5A70558570
:103F5C001882851983AA82AB83121180750800E53B
:103F6C000875F003A4F8A9F0851882851983E582F9
:103F7C0028F8E5831247C31245D8EC4D601D8882A2
:103F8C008983A3A3E0F50E750F00780E1219C9AA48
:103F9C000AAB0B12080E74021217750508E508C35C
:103FAC00940440BBEFA2E1500C900780E0F9AA0A00
:103FBC00AB0B12081474046E702A900C62E064024D
:103FCC007022900794E060047A0180027A009007D6
:103FDC0081E06004780480027800E84AF9AA0AAB10
:103FEC000B120670790074341217757F080218884A
:103FFC0074F01217B6EAFEEBFF8C088D09750A0AED
:10400C00E9600C14600914602E14607F0240A21247
:10401C001192E9F50AC3940A507CE50845096076CB
:10402C00750E06750F00780E1219C9EEFCEFFD1215
:10403C00499E121775805F750B00750E06750F0083
:10404C00780E1219C9EEFCEFFDE50B75F00EA4F815
:10405C00A9F074A228FA740739FB12102A74021200
:10406C001775E9601B850B0AE50AC3940A5027E50E
:10407C000845096021AA08AB09A90A12118C8016FF
:10408C00050BE50BC3940A500D80AF121198E9F59E
:10409C000AC3940A40D9A90A023FF774F41217B65E
:1040AC00890875091574FF6A700374FF6B70277E9D
:1040BC0000AC087A027B00EEF912116EE960037510
:1040CC0009000EEEC3940A40E8E50860497AC27B09
:1040DC0011120A2A8040120A0C8A0A8B0BAE0AAF04
:1040EC000BEE4F602E7C007D00EE2405FAEF3400C1
:1040FC00FB8E828F8312419E500CAC087A027B009F
:10410C0012116E750900E508600CEEFAEFFB121146
:10411C00C28003750914A909023E5874F21217B62D
:10412C00ECFEEDFF740E1217AA1245CB7508157430
:10413C00FF6A700374FF6B7021750900AC0AAD0B3C
:10414C00EEFAEFFBA909121174E96003750800057A
:10415C0009E509C3940A503580E2120A0C8A828B55
:10416C0083E582458360237C007D00E5822405FA8B
:10417C00E5833400FB12419E5013AC0AAD0BEEFAF2
:10418C00EFFB1211747508008003750814A908025E
:10419C004FC9A3A3A3A3E0F912114AE9C3940A22BD
:1041AC00C082C08390079AEAF0A3EBF0900780E0FE
:1041BC00FC7D007A257B00120526900780E0F91221
:1041CC00078AD083D08202012274EC1217B68A08B7
:1041DC008B09E9FE74141217AA780C12162F7F00A3
:1041EC00EE702E78081219C99092BF781012162F03
:1041FC00780C7910121500AA10AB11AC12AD131279
:10420C0005C27402121775E9FF60097901AA08AB9F
:10421C00091205BCEFF97F0C02188874EA1217B664
:10422C0074EC12175FEAFEEBFFEE240CF514EF347E
:10423C0000F515EE240AF510EF3400F511EE240507
:10424C00F50EEF3400F50FEE2409F50AEF3400F506
:10425C000BEE2403F508EF3400F5098E828F83A34F
:10426C00A3E024FA700302459424FD70030244C3B6
:10427C0014700302431214601024FD700302449462
:10428C001470030244F80245B21245F7604AE0F597
:10429C008388821245DE880C890DE8450D603985CE
:1042AC001482851583E0F50E780E1219CDEE240BD1
:1042BC00F582EF3400F583E0F9850A82850B8312D1
:1042CC0045D80A0A0AAB09850C82850D831217B4EE
:1042DC0074011217750245B2850A82850B83121977
:1042EC00E090079612164D1205C27402121775E96A
:1042FC0070030245B27901850A82850B83124DEE5B
:10430C001205BC0245B28E828F83A38582128583EF
:10431C0013E0600302446D850E82850F83E0A2E0FA
:10432C00400302446D7C0E7D00790085188285194E
:10433C0083AA82AB83121030EE2408F50AEF340006
:10434C00F50B850A82F5831245FA6019750C067512
:10435C000D00780C1219C9850A82850B83E0241094
:10436C00FCA3E0801A1245BCEA4B70030245B275FF
:10437C000C06750D00780C1219C9EA2405FCEB34F7
:10438C0000FD74021217AAAA82AB831249A212175B
:10439C0075850E82850F83E0A2E25004D2F0800274
:1043AC00C2F0A2F0E433F8740C1217AAE048F085BE
:1043BC0010828511831245FA601585108285118350
:1043CC00E02410F8A3E03400F988828983800390FC
:1043DC0092C3780C12162F8510828511831245FA20
:1043EC00600F851082851183E0F510A3E0F5118034
:1043FC0006751000751100850A82850B831245FA2B
:10440C00600B850A82850B831245CB8006750A00EA
:10441C00750B00780C1219C578101219C9780A128C
:10442C0019C98514828515831219E08E828F83A396
:10443C001245D3740A1217AAAA82AB83121186747E
:10444C000A1217758508828509831245DE90082AA1
:10445C00E8F0A3E9F07A017B00900780E0F91210F4
:10446C00721245F770030245B21245E4700302451F
:10447C00B2851282851383E0FC7901124DE88E829D
:10448C008F831217B40245B21245F770030245B27E
:10449C00E0F5838882A3A31245DE890BE8450B70F7
:1044AC00030245B28E828F83A3E0FC7902124DE8A1
:1044BC008882850B8380CB7C007D00EE2404FAEF90
:1044CC003400FB850882850983E0F912114AE9F86A
:1044DC00C3940A40030245B2AC10AD117A0475F0D6
:1044EC0006E8A42425F912136C0245B2900795E056
:1044FC00600E900C65E0F9850882850983024309FA
:10450C00900C62E07004790580ED1245BC8A0C8B2E
:10451C000DA80CA90DE82404F50CE93400F50D8E5A
:10452C00828F83A3A3A3A3A3A3A3E0A2E05036E8A6
:10453C00496073850C82850D83E0FE6028850A82B4
:10454C00850B83E05410701D740E1217AAAC82AD4B
:10455C0083E82405FAE93400FBEEF912114AE970FC
:10456C000479038092AC0EAD0F850C82850D83E02F
:10457C00F9124DE81211CE1245F7602A1245E4608B
:10458C00257C007900024487120688E9701890088F
:10459C0029E0640170081211AA900829E4F07950FE
:1045AC0012137812119E74141217757F0E0218884C
:1045BC00850882850983E0FAA3E0FB120A0C22E04D
:1045CC00F50AA3E0F50B22A3A3A3A3A3E0FCA3E0AD
:1045DC00FD22E0F8A3E0F922E0F5838882A3A3E0B2
:1045EC00F8A3E0F9E8FEE9FFEE4F2290079AE0F815
:1045FC00A3E0F9E8492274F41217B674F212175FAB
:10460C00EAFE8C0B75F006E9A42420F508851882C7
:10461C00851983AC82AD837A0E124A5A704A7C0695
:10462C0012477F7043740C1217AA1245DEE8F50985
:10463C00E50B6005EE42098004EEF452098509820F
:10464C00AA82E86A7001E9601B740C1217AAEAF0DE
:10465C00A3E4F0851882851983AC82AD837A0EA908
:10466C000812136C790180027900023E5374F21225
:10467C0017B674E612175F890A8A088B09ECFEEDEF
:10468C00FF740C1217AA124A4D60030247337C06C2
:10469C0079FF740C1217AA12478760030247337410
:1046AC0070250AF50B851882851983AC82AD837A47
:1046BC000C124A5A6003024778851882851983AA1E
:1046CC0082AB83121180E508450970217C0C7900BE
:1046DC0012478160030247787C0C7D0079008518B5
:1046EC0082851983AA82AB8312103080618518826F
:1046FC00851983AC82AD83AA08AB0912117A8A0C96
:10470C008B0DA80CA90DE849702CEE4F601985187B
:10471C0082851983AC82AD837A007B0012117AEA10
:10472C00F8EBF9EA4B70047900804388828983E5C1
:10473C0008F0A3E509F01247FFFAEE6A7001EF608A
:10474C002BEEF04F700888828983E4F0A3F0851873
:10475C0082851983AA82AB831211808518828519F0
:10476C0083AC82AD837A0CA90B12136C7901741A89
:10477C00024FC679FF851882851983AA82AB8312F2
:10478C001096E92274F71217B67F00EF75F003A4A8
:10479C00F8A9F0EC28F8ED1247C3E06A7003A3E027
:1047AC006B7006E8FAE9FB800B0FEFC3940440DB57
:1047BC007A007B00024AF839F9888289832274F7DF
:1047CC001217B67E00EE75F003A4F8A9F0EA28F8EB
:1047DC00EB1247C3E0F4FCA3E0F4FD88828983EC80
:1047EC00F0A3EDF01247FFF4F00EEEC3940440D5A5
:1047FC00024AF8E82402F582E93400F583E02274D9
:10480C00EE1217B674F412175FEAFEEBFF8C0A8DEA
:10481C000B741E1217AAE0F50CA3E0F50D74201210
:10482C0017AAE0F508A3E0F50974221217AAE0F51F
:10483C0010A3E0F511EE4F7005790A024930121100
:10484C0092E9F50EC3940A4023750F007C0679FF9C
:10485C00E50F75F00EA4FAABF0749C2AFA74073BC2
:10486C00FB12478B700302493A850F0EE50EC39479
:10487C000A400302492E75F006E50EA4F50FEEFC76
:10488C00EFFD7A0E742012494BE50A450B600BAC18
:10489C000AAD0B7A1B742112494BE50C450D600BCC
:1048AC00AC0CAD0D7A1B742212494BE5084509601E
:1048BC000BAC08AD097A10742312494BE510451165
:1048CC00601BAC10AD117A10742412494B74241275
:1048DC0017AAAC82AD837A04742512494B7C0C7DEB
:1048EC000079FF1250577A0C7470250EF912136C64
:1048FC0075080E75090078081219C9EEFCEFFDE574
:10490C000E75F00EA4F8A9F0749C28FA740739FB04
:10491C001249A2121775900828E060031211DA12DE
:10492C0011C8A90E740C1217757F0A021888050F8E
:10493C00E50FC3940A5003024858750E0A80E3250C
:10494C000FF912136C2274F41217B674F212175F6B
:10495C00EAFEEBFFE9C3940A5004EE4F70047902AF
:10496C00802D851882851983124A4DF508701E75A5
:10497C000A06750B00780A1219C974021217AAAC30
:10498C0082AD83EEFAEFFB1249A2121775A9080249
:10499C003E53AA08AB0912101874022274F41217B1
:1049AC00B6EAFEEBFF750800750A06750B00780A6F
:1049BC001219C9EEFCEFFDE50875F00EA4F8A9F08C
:1049CC00749C28FA740739FB12102A74021217759A
:1049DC00E96004A908800B0508E508C3940A40C8DF
:1049EC00790A023E5874F71217B674F012175FEA80
:1049FC00FEEBFF750800851882851983AC82AD83A8
:104A0C007A1075F006E508A42423124A5A701F7C0C
:104A1C001012477F7018EEFCEFFD85188285198304
:104A2C00AA82AB83120592E97004A908800B0508D1
:104A3C00E508C3940A40BF790A7410121775024A2C
:104A4C00F8AC82AD837A0E75F006E9A42420F91235
:104A5C001372E92274F71217B6750800E50875F0A1
:104A6C000EA4F8A9F0749C28FE740739FFEEFCEF35
:104A7C00FD7A0E75F006E508124A57602C7C067D0F
:104A8C000079FFEEFAEFFB1210307C067D0079FF07
:104A9C00EE2406FAEF3400FB121030EE240CF582F3
:104AAC00EF3400F583E4F0A3F00508E508C3940A9D
:104ABC0040AA900828E060031211DA1211C8802C69
:104ACC0074F71217B67E007F007C0679FFEF75F045
:104ADC000EA4FAABF0749C2AFA74073BFB12478BBA
:104AEC0070010E0FEFC3940A40DFEEF97F0102183C
:104AFC008874F71217B67E00EEF91211B00EEEC3E1
:104B0C00940A5003E960F180E374F31217B674CB86
:104B1C0012175FE9FF75F006A4F50874202508FE4E
:104B2C0074271217AAAC82AD837A0EEE124A5A6021
:104B3C0003024C177C0679FF74271217AA124787B9
:104B4C006003024C177C0E7D0079FF74271217AAA4
:104B5C00AA82AB831210307C1B7D0079FF740C127F
:104B6C0017AAAA82AB831210307C0C7D0079FF85CA
:104B7C001882851983AA82AB8312103074271217FE
:104B8C00AAAC82AD837A0EEEF912136CE9F50974B6
:104B9C000C1217AAAC82AD837A1B7421124C26FE20
:104BAC00740C1217AAAC82AD837A1B7422124C2699
:104BBC00F50A740C1217AAAC82AD837A1074231206
:104BCC004C26F50B740C1217AAAC82AD837A1074B8
:104BDC0024124C26F50C740C1217AAAC82AD837AF5
:104BEC00047425124C26F508851882851983AC822D
:104BFC00AD837A0C74702FF912136CE9F8EE450A38
:104C0C00450B450C45084842098003750900A90964
:104C1C0074351217757F050218882508F912136C64
:104C2C00E92274F71217B6E9900780F012119E0270
:104C3C004AF874F21217B674FB12175F8A088B09C4
:104C4C00EB54807003024CE2900780E0F912105A8A
:104C5C008A0A8B0BA80AA90BE8FEE9FFE849606CED
:104C6C00EE2404F8EF3400F98E828F83E024506038
:104C7C003814600624E1604A804B88828983E07096
:104C8C00448E828F83A3A3A3A3A3A3A31219E08EA4
:104C9C00828F831245D38E828F83A3A3124DEE1283
:104CAC0011567402121775801C88828983E0641E69
:104CBC00701379008E828F83A3A3124DEE121150C4
:104CCC008003121168EEFAEFFB121048AA08E509EE
:104CDC006480FB024DE3EAA2E04003024DDF900842
:104CEC002A1245CB74031217AA85820C85830D7882
:104CFC000C1219C9750C02750D00780C1219C975B6
:104D0C000C04750D93780C1219C97CFF7DFF7A0188
:104D1C007B001206E27406121775024DC7E4F50CFF
:104D2C00F50D780C1219C974041217AA85820C851A
:104D3C00830D780C1219C974041217AA85820C857C
:104D4C00830D780C1219C974091217AA1219E0797B
:104D5C0002EEFCEFFDAA0AAB0B1208027408121744
:104D6C0075E97035851882851983E0FA740112177C
:104D7C00AAE0F9EA2400F50CE439F50DEA450D60DA
:104D8C0018780C1219C98E828F831245D4AA0AABDB
:104D9C000B1211567402121775E4F50CF50D780C04
:104DAC001219C974051217AA1219E07CFF7DFFEEC7
:104DBC00FAEFFB1206EE74041217758A0C8B0DAE0B
:104DCC000CAF0DEE4F6003024D29E5086401FAAB00
:104DDC000980047A007B007405024FC68508828521
:104DEC000983E0FAA3E0FB22C082C083900780E035
:104DFC00F98A828B83A3124DEE1208140241CEC0A5
:104E0C0082C08374FF12175F1211A4E9C394028548
:104E1C001882851983400474028002740AF0AC82F3
:104E2C00AD837A0179051206A0740112177502413F
:104E3C00CE74F21217B674E812175FEAFEEBFF8914
:104E4C000A8C088D097C187D00790012505FEEF0F9
:104E5C00A3EFF0900782E0C0E074021217AAD0E032
:104E6C00F0900783E0C0E074031217AAD0E0F09032
:104E7C000C67E0C0E074171217AAD0E0F07415129A
:104E8C0017AAE054FEF8A3E0F9900C66E0A2E0E467
:104E9C0033FAE84AF874151217AA124FD5A2E1504A
:104EAC0004D2F08002C2F0E854FDFAA2F0E43333ED
:104EBC00F8EA48F874151217AA124FD5A2E3500459
:104ECC00D2F08002C2F0E854F7FAA2F0E433F50C09
:104EDC00750D007403780C12174C124FCE1217AAD2
:104EEC00124FD5A2E45004D2F08002C2F0E854EF85
:104EFC00FAA2F0E433F50C7404780C12174C124F30
:104F0C00CE1217AA124FD5A2E55004D2F08002C2DD
:104F1C00F0E854DFFAA2F0E433F50C7405780C12C7
:104F2C00174C124FCE1217AA124FD5A2E25004D230
:104F3C00F08002C2F0E854FBFAA2F0E433F50C74F2
:104F4C0002780C12174C124FCE1217AAE8F0A3E9F4
:104F5C00F0900783E0601B750C10780C1219C97C5B
:104F6C00847D0774061217AAAA82AB831249A21277
:104F7C001775900794E06011E50A60097415121713
:104F8C00AAE04402F078018002780074141217AA87
:104F9C00E048F0900781E0600478048002780074A7
:104FAC00141217AAE048F0AC08AD098518828519CF
:104FBC0083AA82AB831205B674181217757F06028A
:104FCC001888EA450CF8741522E8F0A3E9F0900C67
:104FDC0066E02274F31217B674E512175FEAFEEB63
:104FEC00FF8C098D0A74281217AAE0F50C75F006CF
:104FFC00E9A4F87408650A700474228002742128EC
:10500C00F50B7C1B7D0079001250577A1BA90B12F3
:10501C004A5B7032741A1217AAE024F9C3940A502E
:10502C0025E50CF50B780B1219CD74011217AAACEF
:10503C0082AD83E509A2E0E433F9EEFAEFFB120549
:10504C00C87401121775741B024C1E12505FAC828F
:10505C00AD8322851882851983AA82AB8312103006
:10506C008518828519832274F71217B61208867573
:10507C000800E50875F00EA4F8A9F0749C28FE74DD
:10508C000739FF7C0679FFEEFAEFFB12478B7009AC
:10509C00EEFAEFFB790012088C0508E508C3940AB8
:1050AC0040D0024AF8C082C0839061907404F0A38F
:1050BC007448F0A3E4F09061807440F09061BC748B
:1050CC0007F09061877469F09061B67416F07900FE
:1050DC00120B087902120B0E90229CE493F46006DA
:1050EC00E493F9120AE47905120DFC0254F3C08220
:1050FC00C083E9540FF9906185E0696012E5C654EC
:10510C00804449F5C6E59E547F644970F8E9F05334
:10511C00C680E59E547F70FA0254F374F71217B6EA
:10512C00E5A8FE53A87E120AF0C2BA539AFEC289B1
:10513C00759B00C2C2120AF675A91175B905120A3F
:10514C00FCD2BA439A0174805E42A8025A80C08293
:10515C00C083906181E4F0A30254F075E90075916D
:10516C000075BF00020122C082C083906181E4F00F
:10517C00A374C0F0A3E40254F2C082C08374F8128A
:10518C00175F9003C4125962E849700302523C90B5
:10519C0003C4E0544060237908851882851983AADA
:1051AC0082AB83120BFE851882851983AA82AB838E
:1051BC001208AA9003C4E054BFF0E0548060107948
:1051CC000C7A807B05120BFE9003C4E0547FF0E058
:1051DC00A2E05008790012524454FEF0E0540260F0
:1051EC0008790112524454FDF0E05404600879002F
:1051FC0012524F54FBF0E054086008790112524FE0
:10520C0054F7F0E054106008790212524F54EFF04A
:10521C00E054206008790312524F54DFF0A3E0549D
:10522C0001600D120B1A1208BC9003C5E054FEF07D
:10523C0074081217750254F3120B081208B090037D
:10524C00C4E022120B0E1208B69003C4E022C082F6
:10525C00C083E9600514602A804F90619A7433F022
:10526C00A37455F09061A0743AF090055CE0640171
:10527C007009C2919003C67467802D9003C6746147
:10528C00802690619A743FF0A3745AF09061A074D8
:10529C007FF090055CE064017009D2919003C674B4
:1052AC007180059003C6746AF00254F3C082C08307
:1052BC00E9600B14600D14600F14601180209022B3
:1052CC00A080159022A180109022A2800B90055CEA
:1052DC00E0640160F39022A3E493906186F00254A1
:1052EC00F374EE1217B674F412175F8518828519D1
:1052FC0083AC82AD837583927582CF74041216725F
:10530C009022A093F4600302547F907808E0C39439
:10531C0002500302545F74041217AAAC82AD837559
:10532C00839275822E7408121672F97AFF7BFF7FB6
:10533C00FF7E008982858210801874086E700302CB
:10534C00541474096E7003025414740A6E700302C0
:10535C005414E510C333FCE433FD74041217AAE5AE
:10536C00822CF582E5833DF583E0F50EA3E0F50F85
:10537C008E087509007402780812174C74482508B9
:10538C00FC74783509FD8C828D83780812162F7485
:10539C0008780812157085080C85090D8C828D8390
:1053AC00780812162F74187808121570E50C450839
:1053BC00F508E50DF509C3E50E9508E50F95098C83
:1053CC00828D83780812162F8C828D8378081216A2
:1053DC002F741878084014121570E50C4508FCADB4
:1053EC000DE50EC39CFCE50F9D800F121570E50CAE
:1053FC004508C3950EFCE50D950FFDC3EC9AED9B8E
:10540C005006ECFAEDFBEEFF0EEEC39413500302C4
:10541C00534674FF6A700374FF6B602D8F0874021F
:10542C00780812174C744812610E74783509F5839C
:10543C00780812162F851882851983E5822510F5B8
:10544C0082E583125E9BE508F009E9C394045003DE
:10545C0002533775080175090078081219C97402CE
:10546C001217AAAC82AD837AA87B0812121C7402A4
:10547C00121775740C1217757F0A021888C082C037
:10548C0083906186E0F89022A3E4936870099022DF
:10549C00A2E493906186F09061AE7468F0A3746A94
:1054AC00F090624574FBF0A304F053F4FD43FE024C
:1054BC0090055C7401F09061A0E0643A700479008E
:1054CC0080027901120B080254F3C082C08390054C
:1054DC000EE06401700A900513E06004790C800200
:1054EC0079008003F0A3F0D083D082020122C08225
:1054FC00C08375E1F1900511E0604D1460081460F3
:10550C00511460498051120B2C900507E0F97A0870
:10551C007B05120D7E9092D312164D120DB4909203
:10552C008F12164D120D8A900512E0F9120D967914
:10553C0001120DF0900505E024161256887444F003
:10554C00A3740BF07900809F120B3280BC120B38C5
:10555C0080B7120B3E80B2791280EB74F41217B63E
:10556C0075D90D9004F6E0A2E0E4331313F812554C
:10557C00F4484401F5D9780012567240FB78008843
:10558C000874F712610E740412567C40F275E195A2
:10559C009004F6E0F97AF77B04120D84900B987462
:1055AC00BAF0A3740A1256971256B71256AE125787
:1055BC00EF1255FE780812162F9092D77808121514
:1055CC00BB9092C7780812160912568278081216E8
:1055DC003E900505E024141256887413F09003C213
:1055EC007402F07F04021888900507E0C43333542A
:1055FC00C022900505E0F8A3E0F5838882A3A322DE
:10560C0074F61217B61257C08AD978001256724027
:10561C00FB78008006125726125872E8C39940F5A1
:10562C001257B212567240FB7800800812610A744D
:10563C0005125872E8C39940F375E195900B987474
:10564C00C6F0A3740A1256971256A112164D125692
:10565C0082121659900505E024141256887412F023
:10566C009003C2025A5D880874082508F5827405F7
:10567C001259CE940622900505E0240EF8A3E012F0
:10568C00568F223400F988828983221257D874C02D
:10569C00F0A3740A221256B71256AE1257F3909218
:1056AC00C322F0A374D8F0A3740A221256BB2212A0
:1056BC0056BF22F0A3746AF0A3740C2274F612176E
:1056CC00B612571B1255F44402F5D97800125672D3
:1056DC0040FB78008006125726125872E8C3994096
:1056EC00F575E195900B98125731F0A312573112C2
:1056FC0056A412164D125682121659900505E02426
:10570C00141256887414F09003C27404025A5F90F9
:10571C000517E0F9740729F5D922880874182508AB
:10572C00F58274052274D212573E12573EF0A374C0
:10573C000A22F0A3740AF0A374D22274F61217B6DC
:10574C001257C074064AF5D9780012567240FB788D
:10575C00008006125726125872E8C39940F512576A
:10576C00B212567240FB7800800812610A7405125E
:10577C005872E8C39940F375E195900B9874CCF08E
:10578C00A3740A1257CE1256A112164D125682123B
:10579C001659900505E024141256887415F09003E0
:1057AC00C27403025A5F90053712571E74044AF5EF
:1057BC00D978002212571B900507E0C4333354C02C
:1057CC00FA221257D8746AF0A3740C221257DC22F6
:1057DC001257E9746AF0A3740C1257E9221256BFDF
:1057EC00F0A3221257F322F0900BA6746AF0A37464
:1057FC000C1257DC746AF0A3740C1256BBF022C066
:10580C0082C0831255FEA3A3A3A3E40254F074F741
:10581C001217B6126350F8740339F9E82405FAE943
:10582C003400FB8A828B831260BF88828983A3A396
:10583C00A3A3A3A3A3A3A3ECF0A3EDF08882898375
:10584C00A3A3A3A3A3A3A3E024FFF8A3E034FFF92D
:10585C008A828B83E8F0A3E9F0025A80880874608E
:10586C002508F5827405125FE6F5D90822EAFEEBED
:10587C00FF9061D0E0F87480C398FAEE2483221272
:10588C005891940422125EA9E0F5D90AEAC3227455
:10589C00F61217B6EAFEEBFF9061D0E0707575D981
:1058AC000E75D90375D9047A008A08EE250812649E
:1058BC001E248C12593440F17A008A08EE25081205
:1058CC00641E248412588B40F175E1957908EE24FE
:1058DC008C12592D24841259247C008C82AA82C3E8
:1058EC00E49AF895E0F9EE28F8EF39F9E8248BF50D
:1058FC0082E9125FE2C0E0EE2A12641E24ABF5824C
:10590C00E9125E9BD0E0F00CECC3940840CD125928
:10591C00EA80027900025A60FAEF3400FB120BF2B3
:10592C00221259247904EE22125891940822C08232
:10593C00C08375D90275D90375D90575E195EA242B
:10594C0070F582EB12595FEA2472F582EB1259FC66
:10595C000254F3125EAC12596622E0F8A3E0F9226D
:10596C0074F61217B6EAFEEBFF9005607406125936
:10597C00D81219C97C017903125D0412177575D9F7
:10598C000675D90378001259BE40FB75E19590035A
:10599C00C2E064087017EE2470F582EF12595FEEC6
:1059AC002472F582EF125E9BE8F0A3E9F079010214
:1059BC005A60880874602508F58274051259CE94D3
:1059CC000522125EACE0F5D908E8C322F075086038
:1059DC0075090578082275E1957904120DBAEE2443
:1059EC0070F582EF125EAC125966EE2472F582EFFE
:1059FC00125EACE8F0A3E9F079012274F61217B646
:105A0C00EAFEEBFF9061D0E0704379019005607481
:105A1C000BF09003C2E064077017750860750905F8
:105A2C0078081219C97C010909125D0412177579DD
:105A3C0005740129F5D975D90378008003125868CB
:105A4C00E8C39940F875E1951259EA800279008013
:105A5C00037401F07F0202188874F71217B6EAFE7D
:105A6C00EBFF75D90375D90375D90DEE24DE125AE7
:105A7C00851259E27F01021888F582EF125FE6F574
:105A8C00D9227F030218887401250AF5D975D90328
:105A9C0078002274F51217B6125B14600478048037
:105AAC00027800E8240BF8EAC3984041750A099083
:105ABC0005607409F07908125AFD60147508607558
:105ACC00090578081219C9125CFC121775750A0DB4
:105ADC00125A938003125868E8C3950A40F775E18F
:105AEC00957904120DBA125C7979018002790080E3
:105AFC0091EE24E3FCEF3400FD7A617B05120BEC94
:105B0C00850882850983E022125879F8EF1260B378
:105B1C00F583E02274F31217B68A088B09125D0F15
