:020000040000FA
:0600000002010A021E23AA
:03002B000222A40A
:0300330002228620
:03003B000222C5D9
:0300430002223A5C
:03005300021E96F4
:03006B000222600E
:10008300021CD7E5C754F84401F5C77901220000E3
:100093000080FB120086B900030200F4E4792178A2
:1000A30008B800028004F709D8FCE479297802B87B
:1000B30000028004F709D8FCE490028178397909B9
:1000C3008002F0A3D8FCD9FA900AB9AA82AB839034
:1000D300013A780379048015E493A3AC82AD838A53
:1000E300828B83F0A3AA82AB838C828D83D8E9D9D8
:1000F300E77582917583A5740312011C758291754E
:100103008300740012011C75D00075813F7518813E
:10011300751902759F00020096C09FF59FE473D086
:100123009F22D083D082C09FE493C0E0740193C028
:10013300E0740293F59F22FF0000B400002800281A
:1001430000283075A000A000A000A000000800084F
:10015300E001F0001000100010001000100010006B
:1001630050005000500010001000D00700000000A5
:1001730000000F00010005003075070010000100AA
:1001830081FF0000FF3A0658064006FF02020208FC
:10019300025000A0000000E80302EC84010000D537
:1001A3008402E8840100000E0B02DE84010000B229
:1001B3000202E8840100000F0B02FE84010000C864
:1001C3000202E884010000100B02F084010000CA5F
:1001D3000202E884010000110B02E684080000CB50
:1001E3000202E884010000120B02E4840100001300
:1001F3000BFF0100FF2002EC84010000D28402E81F
:1002030084010000770B02F284000000000002E08A
:10021300840300001803160C160C160C160C160C8F
:10022300160C160C160C160C160C160C160C160CBB
:10023300920EAA0E8C0EFFFF0202020202020202BB
:1002430002010D000000100102EC84010000DB84B8
:1002530002E884010000BA0B02068501000078075A
:1002630002E884010000BB0B020485010000B8838F
:1002730002E884010000BC0B0202850100008283B6
:1002830002E884010000BD0B020085010000DF824B
:1002930002E884010000BE0B02FC84010000CD8251
:1002A30002E884010000BF0B02FA84010000BB8254
:1002B30002E884010000C00B02F884010000A98257
:1002C30002E884010000C10B02F684010000908360
:1002D30002E884010000C20B02F484010000C30B96
:1002E30001E803053F10FF0001307503020106001A
:1002F30000000000000000000000000000000000FB
:100303000000000000000000000000FFFF06008066
:100313000CE803140953696D706C65424C455065D4
:10032300726970686572616C051250002003020ADD
:10033300000201060302F0FF53696D706C652042F1
:100343004C45205065726970686572616C1E1300BC
:10035300003013361324130A4368617261637465B2
:100363007269737469632031000243686172616367
:10037300746572697374696320320008436861723B
:100383006163746572697374696320330010436831
:100393006172616374657269737469632034000206
:1003A300436861726163746572697374696320354C
:1003B3000002EC84010000CF8402E884010000D92C
:1003C3000C021685030000AA0A02E284010000DA87
:1003D3000C02E884010000EB0C021285010000AB63
:1003E3000A02E284010000EC0C02E884010000FD33
:1003F3000C021085020000AC0A02E284010000FE38
:100403000C02E8840100000F0D020E85000000AD10
:100413000A02E084030000AE0A02E2840100001035
:100423000D02E884010000210D020A85040000B4D6
:100433000A02E284010000220D120125989803129A
:100443000125AF9803120125DE98031201251799A0
:10045300031201253F99031201256D99031201250A
:100463008499031201259B9903120125B199031263
:100473000125D89903120125EB9903120125019A4D
:1004830003120125149A03120125399A0312012537
:1004930011A40212012510A50212012545A502127D
:1004A300012566A50212012576A50212012597A54D
:1004B30002120125A3A60212012570A7021201252B
:1004C300E3A70212012569A802120125ACA80212B2
:1004D3000125E3A80212012569A9021201253BAAFD
:1004E3000212012599AA02120125B1AA02120125BD
:1004F3002BAB021201252EAB0212012531AB0212E6
:100503000125D8AB02120125F0AB0212012520AC64
:100513000212012540AC021201252EAD0212012563
:10052300E4AD02120125C0E502120125E8E502123D
:10053300012516E6021201254DE602120125B5E654
:1005430002120125FEE60212012549E702120125E6
:1005530087E702120125C4E702120125F2E702121E
:10056300012599E802120125A3E802120125B0E84A
:1005730002120125E3E802120125A5E90212012571
:10058300B1E902120125C9E902120125D3E90212D8
:10059300012525FF0212012533FF021201254BFF1E
:1005A3000212012563FF021201252CA80112012565
:1005B300CAA80112012542A90112012557AA011255
:1005C300012591AA011201253AAB011201250FACB5
:1005D3000112012573AD01120125CAAD01120125D6
:1005E30051AE0112012538AF0112012585AF011269
:1005F300012513B00112012537B0011201250CB2F8
:10060300011201254DB2011201256FB2011201251C
:10061300F0B201120125DAB301120125A0B40112CF
:10062300012575CE0212012547CF02120125F0CF15
:100633000212012533D002120125C0D00212012576
:100643004CD1021201252DD2021201255CD20212D5
:10065300012558D302120125A0D302120125A2D4E9
:1006630002120125E6D4021201250CD5021201253E
:10067300C2A3031201250080031201251680031271
:1006830001253C80031201256481031201256E813B
:1006930003120125C78203120125C7830312012513
:1006A300F0DB0212012525DD0212012558DD0212BD
:1006B3000125A2DD0212012560DF02120125CF9878
:1006C30001120125329901120125779A01120125A0
:1006D300879A01120125AA9A01120125F59A01129E
:1006E30001259A9B01120125909C011201255A9D17
:1006F30001120125D29E01120125149F0112012529
:10070300B29F01120125FF9F0112012525A00112AD
:10071300012513A20112012518A201120125F9A333
:10072300011201254DA401120125AFA401120125D7
:10073300D7A4011201257BA5011201253DA60112B3
:1007430001256EA60112012571A601120125B9A684
:1007530001120125FBA60112012562A70112012541
:100763005390031201256690031201257F90031213
:100773000125CA9003120125A59103120125349284
:10078300031201257F92031201253823001201254C
:100793004423001201257D2300120125C2230012E8
:1007A3000125792400120125FF2400120125642567
:1007B30000120125902500120125C92500120125EB
:1007C300DD2700120125B92900120125A42B0012EF
:1007D3000125DB2C001201253B2F001201252730B8
:1007E300001201256D31001201257A320012012514
:1007F300973200120125CF3200120125E93200128F
:100803000125513300120125EB37001201258C38E5
:1008130000120125DD3800120125043900120125DB
:10082300523900120125703900120125C439001212
:1008330001259D3A00120125243C00120125AC3C00
:100843000012012516E10212012520E10212012501
:10085300EBE10212012506E2021201252CE202124B
:10086300012570E202120125A8E202120125D1E25C
:10087300021201254AE3021201255FE30212012558
:1008830074E302120125ABE302120125BFE3021256
:100893000125F0E3021201252AE40212012556E4A0
:1008A30002120125ACE40212012500E50212012522
:1008B30049E50212012573E50212012598E50212AA
:1008C300012539FB0212012503FC02120125E6FC76
:1008D300021201255CFD021201259EFD0212012573
:1008E300CBFE02120125008002120125298002128B
:1008F30001254280021201258781021201256582AA
:10090300021201258482021201251183021201259C
:10091300548302120125A18402120125408502128B
:100923000125BF87021201255688021201252A8953
:10093300021201250C8A02120125788B021201256D
:100943000B8C02120125CD9E03120125369F031243
:1009530001258A9F03120125B19F0312012568EA2D
:1009630002120125D5EA0212012520EB021201250C
:1009730015EC0212012511ED02120125FBED021205
:1009830001254FAE0212012591AE021201256BAF74
:100993000212012544B0021201253FB102120125C2
:1009A3001EB2021201258AB20212012551B30212AC
:1009B3000125BCB30212012523B4021201254EB452
:1009C30002120125BFB40212012552B502120125FC
:1009D300BBB502120125D0B50212012518B60212C9
:1009E300012531B60212012596B60212012599B6E8
:1009F300021201257B8A03120125A38A0312012512
:100A0300E18A031201259F8B031201250A8C03122D
:100A13000125268C031201254E8C031201257E8CA1
:100A2300031201258D8C03120125078D0312012565
:100A33002D8D0312012553C50112012530C7011263
:100A430001252BC901120125FEC90112012549CA3D
:100A53000112012594CA01120125A6CA011201251A
:100A6300E6CA011201251BCB0112012567CB011236
:100A7300012596CB01120125B9CB0112012506CC24
:100A8300011201258FCC011201259CCE01120125F3
:100A930087D001120125CAD0011201252FD20112DC
:100AA300012570D201120125E3D2011201252FD3B2
:100AB300011201255AD301120125828C021201254C
:100AC300AD8C02120125949302120125B8950212EE
:100AD3000125739702120125D09802120125133DB7
:100AE30000120125AA3D00120125F03D0012012547
:100AF3002F3F00120125C64000120125404100127C
:100B030001255B4100120125D04100120125FF425E
:100B1300001201255A44001201255C4500120125EB
:100B2300B94600120125D246001201252F470012B3
:100B33000125114800120125444800120125B4483B
:100B4300001201252E49001201257D4900120125BD
:100B5300494A001201254E4B001201252D4C00126B
:100B63000125B84C00120125264D001201259A4D8E
:100B730000120125C34D00120125824E00120125EA
:100B8300FC4F0012012519500012012538500012A4
:100B93000125C95000120125EE50001201251651FE
:100BA30000120125915100120125EB51001201257C
:100BB3003F5300120125FC5300120125CF540012AC
:100BC300012584D301120125D4D301120125E0D3D9
:100BD30001120125BDD401120125EDD40112012515
:100BE30025D501120125A4D501120125DCD5011259
:100BF30001252ED6011201256BD60112012590D8AD
:100C030001120125BCDA01120125B7DC011201250D
:100C130092DE01120125FCFF011201251E8501123E
:100C23000125688501120125478B01120125C88C16
:100C33000112012527930112012522940112012596
:100C43005F9401120125829401120125C4940112BB
:100C53000125CD9401120125D79401120125C395D5
:100C630001120125B79601120125FD540012012539
:100C7300755F001201257B5F001201258766001254
:100C83000125658703120125638803120125B988AD
:100C930003120125F7880312012554890312012544
:100CA300D18903120125DA8903120125E68903128A
:100CB3000125F98903120125358A031201254B8A7F
:100CC30003120125BDEE02120125CAEE021201250F
:100CD300E4EE0212012523EF0212012561EF021255
:100CE3000125C6EF02120125DBEF02120125E6EF13
:100CF30002120125F3EF021201250AF00212012567
:100D030018F00212012523F0021201252FF002121E
:100D130001253EF00212012549F0021201256CF073
:100D23000212012515F10212012525F102120125F6
:100D33003FF1021201255CF10212012578F1021242
:100D430001259DF102120125A7F102120125BBF134
:100D530002120125DAF1021201253BF202120125EA
:100D630041F20212012547F2021201254DF202124D
:100D7300012559F2021201258CF20212012558E1D4
:100D830001120125DAE10112012583E20112012595
:100D9300CBE301120125D9E501120125BFE60112BA
:100DA3000125F4E60112012516E701120125BFE72B
:100DB300011201258FE901120125B8E9011201256C
:100DC30030EA0112012562EA011201256FEA0112DC
:100DD3000125BAEA01120125DEEA011201252FEDF0
:100DE3000112012539EE0112012595EE01120125AB
:100DF300D5B601120125E6B701120125CAB80112C1
:100E03000125D4B801120125F6B80112012502B952
:100E130001120125A6BA01120125D3BA0112012537
:100E2300E9BB011201253EBC011201258DBD011252
:100E3300012562BE01120125BEBE0112012529BF93
:100E4300011201255EBF01120125A1BF0112012577
:100E53006BC20112012583C20112012514C30112C1
:100E6300012522C3011201256FC3011201257DC390
:100E730001120125E9C30112012564C401120125F0
:100E8300BBC401120125F398021201251599021220
:100E93000125269B02120125E59D021201250F9FC4
:100EA30002120125CD9F02120125B9A002120125CC
:100EB300DF96031201250497031201257A97031283
:100EC300012558C70212012561C7021201256AC70D
:100ED3000212012542C802120125F3C9021201259B
:100EE30023CA021201254ECA021201257ECA02122A
:100EF3000125A9CA02120125DDCA0212012509CB67
:100F0300021201254CCB0212012577CB02120125D7
:100F1300BECB0212012513CC0212012555CC0212BD
:100F23000125AFCC02120125DACC0212012529CD0D
:100F33000212012559CD0212012584CD0212012589
:100F4300B2CD02120125D5CD021201254BA4031205
:100F5300012577A403120125A4A403120125AEA43D
:100F630003120125BEA403120125BDB602120125F9
:100F7300C7B60212012505B7021201254EB70212A8
:100F8300012588B702120125E2B70212012503B831
:100F930002120125DBBA02120125E4BA021201256D
:100FA30031BB021201255ABB0212012564BB021296
:100FB3000125D0BB0212012562BC02120125ACBC83
:100FC30002120125E2BC021201256EBD02120125A7
:100FD300AFBD02120125E6BD02120125F8BD0212C2
:100FE300012517BE0212012520BE02120125E8BE0B
:100FF30002120125E6A003120125EE940312012536
:101003002495031201255A9503120125A59603126F
:101013000125C8A403120125DEA403120125E8A4B7
:101023000312012532A50312012509F3021201253A
:101033001EF302120125D1F30212012511F402124B
:1010430001252AF40212012565F402120125B2F4E6
:1010530002120125E4F40212012526F502120125EC
:10106300DF9B03120125089C03120125379C031201
:101073000125CF9C03120125119D03120125758DB6
:10108300031201259A8D03120125C48D0312012534
:10109300A87F00120125426B001201251F6D00126B
:1010A3000125C56E00120125796F00120125037019
:1010B30000120125847000120125AD700012012574
:1010C300FF7000120125BD74001201254375001243
:1010D30001256A7600120125A47600120125E57622
:1010E300001201252D78001201258A7800120125AE
:1010F300D378001201253E7900120125AF79001241
:101103000125E17900120125F97900120125257BDA
:1011130000120125357B00120125DF7C0012012519
:10112300F67C00120125287D00120125DC7E0012C9
:101133000125697F00120125DDA103120125EEA11E
:1011430003120125E4A50312012523A60312012599
:10115300D5A6031201252AA3031201253AA30312DC
:10116300012552A303120125B8A303120125E29F0F
:101173000312012567A003120125CDA00312012547
:10118300569D031201257F9D03120125E79D03123E
:101193000125389E03120125939E0312012531F781
:1011A3000212012556F70212012573F702120125D7
:1011B30090F702120125B5F702120125E7F7021293
:1011C300012512F802120125C8F80212012548F977
:1011D300021201256FF90212012579F90212012584
:1011E300BDFA02120125E8A60312012533FC011200
:1011F3000125C3FC011201254CFD01120125E8FD67
:101203000112012579FE0112012527FF0112012593
:1012130035FF01120125B3FF01120125C6FF01129B
:101223000125DCFF01120125E6FF01120125F9FF6B
:10123300011201258EA20312012590A2031201259A
:1012430014A3031201251FA3031201254B9A0312B2
:1012530001259D9A03120125109B03120125799BF9
:1012630003120125A99203120125D392031201252A
:10127300A193031201257C940312012516BF0212C8
:101283000125DDBF0212012514C0021201253EC053
:10129300021201259EC002120125F4C0021201258B
:1012A30059C102120125F1C10212012500C3021224
:1012B300012597C40212012524C5021201258BC5FD
:1012C30002120125A2C502120125BCC60212012584
:1012D300FAC602120125E2EE011201252FF20112D4
:1012E3000125ABF30112012502F4011201251FF4BC
:1012F300011201259DF40112012520F60112012599
:1013030005F701120125BAFA0112012590FB01121A
:10131300012581D50212012503D802120125AED879
:1013230002120125D3D90212012546DA0212012540
:10133300C7DA021201252BDB02120125ACDB0212F4
:101343000125D18303120125168403120125338459
:1013530003120125E984031201253C8503120125AB
:101363001286031201252C870312012563A603129B
:1013730001252DA6031201258FA603120125B7A669
:1013830003E066701008A3E066700A08A3E06670C5
:101393000408A3E06622C3E7960809E7960809E76D
:1013A300960809E79622C3E09608A3E09608A3E00F
:1013B3009608A3E09622C008C3E096F50808A3E0C8
:1013C30096420808A3E096420808A3E096450870F1
:1013D30001D3D00822080808EAC0E0EBC0E086F099
:1013E300E7A4FA180986F0E7A42AFA180986F0E7B1
:1013F300A42AFA180986F0E7A42AFA1986F0E7A4C2
:10140300FBE5F02AFA190886F0E7A42BFBE5F03A8E
:10141300FA190886F0E7A42BFBE5F03AFA18180945
:1014230086F0E7A4C5F02BFBE43AFA1908E7C5F008
:10143300C6A426F6E5F03BFBE43AFA1886F0E7A4E7
:10144300F6E5F00826F6E43B08F6E43A08F6D0E0C1
:10145300FBD0E0FA22E4CFC0E0E4CEC0E0E4CDC0AC
:10146300E0E4CCC0E075F020C3E633F608E633F6DB
:1014730008E633F608E633F6181818EC33FCED33B8
:10148300FDEE33FEEF33FFC3EC9709ED9709EE97BB
:1014930009EF97191919400FFFEC97FC09ED97FD18
:1014A30009EE97FE191906D5F0BEECF709EDF70919
:1014B300EEF709EFF7191919D0E0FCD0E0FDD0E001
:1014C300FED0E0FF226016080808C6C313C618C67C
:1014D30013C618C613C618C613C6D5E0EA22700988
:1014E300080808226016181818C6C333C608C6337E
:1014F300C608C633C608C633C6D5E0EA22E627F6D1
:101503000809E637F60809E637F60809E637F6224A
:10151300E026F608A3E036F608A3E036F608A3E0D3
:1015230036F622E026F008A3E036F008A3E036F012
:1015330008A3E036F022C3E697F60809E697F60813
:1015430009E697F60809E697F622C3E096F008A3A2
:10155300E096F008A3E096F008A3E096F022E056A8
:10156300F608A3E056F608A3E056F608A3E056F6FD
:1015730022E056F008A3E056F008A3E056F008A3D3
:10158300E056F022E0F608A3E0F608A3E0F608A38D
:10159300E0F622E6F008A3E6F008A3E6F008A3E6E7
:1015A300F022E0FAA3E0FBA3E0FCA3E0FD22EAF0D3
:1015B300A3EBF0A3ECF0A3EDF022CAC0E0E6F0A3A6
:1015C30008DAFAD0E0FA22CAC0E0E0A3C582CCC5AB
:1015D30082C583CDC583F0A3C582CCC582C583CD27
:1015E300C583DAE6D0E0CA22C3E498F8E499F91295
:1015F300162C8026C3E49AFAE49BFBE920E7E91260
:10160300162CE498F8E499F922C3E498F8E499F9DC
:1016130012162CE498F8E499F9C3E49AFAE49BFBD4
:1016230022EB20E7CFE920E7E0B90010BB0008E890
:101633008AF084F8AAF022E4FBC8FA22EB70227B3A
:1016430010C833C8C933C9335007C39AC3DBF28008
:10165300069A50012ADBEAC833F4C8C933F4C9FA3D
:101663002275F008E4C833C8C933C933C99AC99B82
:101673005004C92AC93BD5F0ECFBC833F4C8E4C90C
:10168300FA22600D08C6A2E713C618C613C6D5E032
:10169300F322600C08C6C313C618C613C6D5E0F4FC
:1016A30022700422600D18C6C333C608C633C6D5DC
:1016B300E0F41822251810AF08F518400215198018
:1016C30008F51840021519D2AF22C0D0251810AF63
:1016D30008F518500205198008F51850020519D2AB
:1016E300AFD0D0222518F58210AF08F518400215A7
:1016F300198008F51840021519D2AF8519832225E0
:1017030018F582E43519F58322E4732518C582C0E0
:10171300E0E51934FFC583C0E0E518C3958224F8DA
:1017230010AF0885831985821880088583198582FF
:1017330018D2AFCEF0A3E520F0A37808E608F0A313
:10174300DEFAEFF0A3E58124FAF8E608F0A3E60851
:10175300F0A3E608F0A30808E608F0A3E608F0A360
:1017630015811581D0E0FED0E0F815811581158132
:10177300E8C0E0EEC0E0222518C582C0E0E51934D8
:10178300FFC583C0E0E518C3958224F910AF08852F
:1017930083198582188008858319858218D2AFCE74
:1017A300F0A3E520F0A37808E608F0A3DEFAEFF053
:1017B300A3E58124FBF8E608F0A3E608F0A30808F4
:1017C300E608F0A3E608F0A315811581D0E0FED06A
:1017D300E0F815811581E8C0E0EEC0E022851983A9
:1017E300851882E0A3FEE0A3F5207808E0A3F608BD
:1017F300DFFAE0A3FFE0A3C0E0E0A3C0E0E0A3C002
:10180300E0E0A3C0E0E0A3C0E010AF088582188544
:1018130083198008858218858319D2AFD083D0823B
:10182300020122851983851882E0A3FEE0A3F52037
:101833007808E0A3F608DFFAE0A3FFE0A3C0E0E046
:10184300A3C0E0E0A3C0E0E0A3C0E010AF0885823E
:10185300188583198008858218858319D2AFD083B0
:10186300D08222C0D02518C582C0E0E51934FFC557
:1018730083C0E0E518C3958224F310AF088583196C
:101883008582188008858319858218D2AFC8F0A392
:10189300E9F0A3EAF0A3EBF0A37908E709F0A3D8F2
:1018A300FAECF0A3EDF0A3EEF0A3EFF0A3D0E0F099
:1018B300A3D0E0F0A3D0E0F0A3E520F0A3E5F0F09F
:1018C300A322851983851882E0C0E0A3E0F9A3E091
:1018D300FAA3E0FBA37808E0F608A3DFFAE0FCA391
:1018E300E0FDA3E0FEA3E0FFA3E0C0E0A3E0C0E0CF
:1018F300A3E0F5D0A3E0F520A3E0A3F5F010AF0833
:101903008583198582188008858319858218D2AF4B
:10191300D082D083D0E0F8D0E03274048006740221
:1019230080027401C0E0F4041216E7D0E01215BD82
:10193300227404800474028000CCC0E0EDC0E0E5B2
:1019430018C39CCCAD1950011D10AF068C188D190E
:1019530080068C188D19D2AF1215CAD0E0FDD0E0E5
:10196300FC22D083D082E9C0E0E493A3C386F0C510
:10197300F095F0F908E493A386F0C5F095F0700BA9
:10198300E493A3C3994005E9048002A3E475F0023C
:10199300A42582F582E5F03583F583D0E0F9E4935D
:1019A300A3C0E0E493C0E022D083D082ECC0E0ED9A
:1019B300C0E0E493A3FCE493A3FDED4C600D121986
:1019C300F7EC24FFFCED34FFFD80EFE493A3FCE48C
:1019D30093A3FDED4C600D121A36EC24FFFCED349D
:1019E300FFFD80EFD0E0FDD0E0FCE493A3C0E0E492
:1019F30093C0E022C0E0C3E4939608740193961861
:101A0300400FE493667008087401936618700070C1
:101A130019A3A3C3E49396087401939618A3A34050
:101A23000DD0E0D0E0D0E00219E7A3A3A3A3A3A3C2
:101A3300D0E022C0E0C0F088F0E493667008087438
:101A4300019366187000A8F0A3A3700BD0F0D0E048
:0E1A5300D0E0D0E00219E7A3A3D0F0D0E0224B
:101A640074F512177AEAFEEBFFEE2434F8EF340033
:101A7400F988088909EE2435F582EF3400F583E00E
:101A8400F8EE2437F582EF3400F583E0F50AEC85AF
:101A94000AF0A4FCAAF0850AF0EDA42AFDE82CF8CB
:101AA400E43DF97A257B0012162CEA850882850923
:101AB40083F05407F87401B800028004C333D8FCDF
:101AC400C0E0E0131313541FF8EE28F8EF3400F9C4
:101AD400E8245DF582E93400F583D0E0F8E058604D
:101AE40008EE2434F582EF801EEE2436F582EF34BE
:101AF40000F583E0F5F0EA84A8F0EE28F8EF34006E
:101B0400F9E82438F582E93400F583E0F97F04022A
:101B1400182674F512177AEAFEEBFFEE2434F582E8
:101B2400EF3400F583E0C0E0EE2435F582EF3400B5
:101B3400F583D0E0F08E828F83A3A3A3A3A3A3A3F2
:101B4400C082C0838E828F83A3A3A3A3A3E0F8A340
:101B5400E0F9D083D082E0C398F508A3E099F509B1
:101B6400EE2480F582EF3400F583E064017069EEC1
:101B74002481F582EF3400F583E0F8A3E0F98E8246
:101B84008F83A3A3A3A3A3A3A3E0FCA3E0FD8E825E
:101B94008F83A3A3A3A3A3E0FAA3E0FBC3EA9CEB74
:101BA4009D5027C3EC98ED99402EC3EA98EB9950C9
:101BB400277CFD7D04EEFAEFFB120B74EE2480F516
:101BC40082EF3400F583E4F0800EC3EA98EB994089
:101BD400E0C3EC98ED9950D9EE2434F8EF3400F9D1
:101BE400E8FCE9FDEE2435F582EF3400F583E0F8F6
:101BF400EE2437F582EF3400F583E0F50AE5088535
:101C04000AF0A4F508AAF0850AF0E509A42AF50962
:101C1400E82508F8E43509F97A257B0012162CEA40
:101C24008C828D83F05407F87401B800028004C3D9
:101C340033D8FCC0E0E0131313541FF8EE28F8EF78
:101C44003400F9E8245DF582E93400F583D0E0F846
:101C5400E0586008EE2434F582EF801EEE2436F559
:101C640082EF3400F583E0F5F0EA84A8F0EE28F87A
:101C7400EF3400F9E82438F582E93400F583E0F91B
:101C840012222C021B11C082C083851882851983FD
:101C9400E0F8A3E0F9C3EA9CEB9D5012C3EC98ED85
:101CA400994019C3EA98EB99501279018010C3EA5C
:101CB40098EB9940F5C3EC98ED9950EE7900D083F8
:101CC400D08222EAC39CFAEB9DFB22008521878502
:101CD40022C622C0E0C0D0E8C0E0E9C0E0EAC0E02B
:101CE400EBC0E0ECC0E0EDC0E0C008C009C00AC031
:101CF4000BC082C083C0F0759B00906182E0A2E6B5
:101D04004003021DB5E591A2E64003021DB575919D
:101D1400BF9003C2E064057008120CA0120CAC80E2
:101D240003120CA6752100120D00E99003C3F0798B
:101D340000120CF4120AEA7A017B009003C1E0F964
:101D4400120FCA907803E064426003021DFE9005FE
:101D54005FE014F06003021DFEC2AF121D62007842
:101D64002AD0E0F618D0E0F6E59F5407F970059004
:101D740084A3800390849B7808121587E9C4C0E08B
:101D84007829E65508F50808E65509F509740B782D
:101D940008121695D0E02508F8906270E0A2E7409A
:101DA400F8E8C333906272F0906270E0D2E0F080A1
:101DB40049E0A2E55024E591A2E5501E7591DF901B
:101DC40003C2E0640D70139003E4E004F06428702F
:101DD40002E4F07A00E0F9120D72906181E0A2E36E
:101DE4005009E5E9A2E3500375E9F7A3E0A2E7503F
:101DF40009E591A2E7500375917FD0F0D083D0829A
:101E0400D00BD00AD009D008D0E0FDD0E0FCD0E05F
:101E1400FBD0E0FAD0E0F9D0E0F8D0D0D0E032C086
:101E2400E0C0D0C082C083906183E0A2E05009E5A5
:101E3400BFA2E0500375BFFEE0A2E15009E5BFA2D6
:101E4400E1500375BFFDE0A2E25009E5BFA2E250F4
:101E54000375BFFBE0A2E35009E5BFA2E35003759D
:101E6400BFF7E0A2E45009E5BFA2E4500375BFEF59
:101E7400E0A2E55009E5BFA2E5500375BFDFE0A28B
:101E8400E65009E5BFA2E6500375BFBFD083D082F8
:101E94008088C0E0C0D0E8C0E0E9C0E0EAC0E0EB80
:101EA400C0E0ECC0E0EDC0E0C0F0E5A7A2E6500F52
:101EB400E5A1A2E6500953A7BF75A1BF121EFBE519
:101EC400A7A2E5500CE5A1A2E5500653A7DF75A132
:101ED400DFE5A7A2E15009E5A1A2E1500375A1FD48
:101EE400E5A7A2E2500CE5A1A2E2500653A7FB75B8
:101EF400A1FBD0F0021E0C74F812177A7521019020
:101F040003C2E064067015120C408A828B83A3A37B
:101F1400A3A3A3A3E0FAA3E0FB120C8EA2AFE433C5
:101F2400FED2AF9003C8E0640170187A207B009061
:101F340003C1E0F912104E7A207B009003C1E0F94E
:101F4400120FD0906182E0D2E6F090055EE060214D
:101F540085C62280169003C7E064017008E5C65464
:101F6400F84405F5C653BEFC121CD074016521600B
:101F7400E4EEA2E092AF7F01021826008E238F24A4
:101F8400858228858327851882851983E0CEA3E07E
:101F9400CF852882852783EBC9EAC8EDCBECCA75C7
:101FA400F010C3E833C8E933C9EA33CAEB33CBC30F
:101FB400EA9EF526EB9FF525B35004AB25AA26EC43
:101FC40033CCED33CDD5F0DAAE23AF242274F11245
:101FD400177A8A088B098C0A8D0B740F12170278F2
:101FE4000C12158790848B780812156190848B7875
:101FF4000C1215617808790C121399501578087928
:102004000C12153990846F78081213B940157901B0
:102014008013780C790812153990846F780C121398
:10202400B940EB79007F0802182674ED12177A8AFA
:10203400088B098C0A8D0B7413121702780C121575
:102044008790848B780812156190848B780C121514
:1020540061780C790812139940117808790C1215DB
:1020640039AA08AB09AC0AAD0B80227510007511B2
:10207400007512007513017810790C121539781057
:102084007908121500AA10AB11AC12AD137F0C0223
:10209400182690848B78081215878A828B83780897
:1020A4001215747F0402182674F512177A8C828D27
:1020B4008378081215878A828B83780812154DEA73
:1020C4002404F8EB3400F98C828D83A3A3A3A3E04A
:1020D400FCA3E0FD88828983C3E09CF0A3E09DF02B
:1020E40088828983C3E09420A3E0944E40229084A4
:1020F400B778081215878A828B8378081215268A86
:10210400828B83A3A3A3A3E02420F0A3E0344EF0A6
:10211400808074F512177AE9FE900514E0FAA3E0C2
:10212400FBEEC333F8E433F9744328F5827483393E
:10213400F583E02AF508A3E03BF509780812192194
:102144009084AB1215A5121F8074021216CD8A0852
:102154008B098C0A8D0B741078081214C8AA08AB6A
:10216400097F0402182674F112177A8A0C8B0D8CDD
:102174000E8D0F740F121702E0FAA3E0FB74111214
:102184001702E0F508A3E0F5097413121702E0FE44
:10219400A3E0FF7808121921EA2401F508EB3400C2
:1021A400F509E4F50AF50B780C79081213D8908434
:1021B400677808121587780C79081213D8AA0CAB23
:1021C4000DAC0EAD0F121F8074021216CD8B09EAEE
:1021D400450960047A0180027A00EC2AFCED34009F
:1021E400FDECF8EDF97A717B0212162C8808890946
:1021F400E4F50AF50B8E828F837808121596ECF8B5
:10220400EDF97A717B0212162C8A088B0974057811
:10221400081216A48E828F83A3A3A3A3E508F0A3B8
:10222400E509F07F08021826C082C083E9906000A7
:10223400F0D083D08222C0E074F2121866A2AFE418
:1022440033FED2AFC2C0E5D1A2E4500653D1EF129F
:10225400122EEEA2E092AF7F010218C5C0E074F224
:10226400121866A2AFE433FED2AFE589A2E15003AF
:10227400121198758900C2C5EEA2E092AF7F0102E7
:1022840018C5C0E074F2121866A2AFE433FED2AFF0
:10229400E58BA2E05003121198758B00C2E880D838
:1022A400C0E0C0D0E8C0E0E9C0E0E5A8D2AFC2C752
:1022B400A2E7A2E792AFD0E0F9D0E0F8D0D0D0E026
:1022C40032C0E0C0D0E8C0E0E9C0E0C008C009C046
:1022D40082C083A2AFE433F9D2AF9009E0E0F8A35F
:1022E400E0687008539AFBA374018026C2E9900940
:1022F400E0E0F50874012508F074602508F582749F
:10230400093400F583E0F5C19009E0E0C39480400E
:1023140002E4F0E9A2E092AFD083D082D009D008E1
:0B232400D0E0F9D0E0F8D0D0D0E032DB
:10233000FFFFFFFFFFFFFFFFC082C083E9900B7626
:10234000F00225BC74F712170EE99002E0F07C1839
:102350007D037AFF7BFF12081A9002E174FFF0A35D
:10236000F0A3E4F0A3F079051207A29002E0E0F9EF
:102370001206CA7A387B081209FA0232CA74F412B9
:10238000170E8A088B09EB548060309002E0E0F968
:10239000120FB28A0A8B0BAE0AAF0BEE4F60138E90
:1023A000828F83E064B070031207BAEEFAEFFB127B
:1023B0000FA0AA08E5096480FB80047A007B000274
:1023C000258B74F212170E74FC1216B7EAFEEBFF9F
:1023D00074121217021237B1EE4F700302246574A3
:1023E00002121702EEF0A3EF1227C6ECF0A3ED12D3
:1023F00027C6AA82AB831206C4E9F50A706AE5080B
:10240000450960648E828F83123797EE4F60567A4B
:10241000067B001210068A0C8B0DA80CA90DE8494A
:102420007005750A13804188828983E4122472EE54
:10243000F0A3EF1237C2E508F0A3E509F09002E639
:102440001224F99002E67005123274801B12326277
:102450008003EAFCEBFD8C828D831224F970F38CEF
:10246000828D8380E3750A02A90A74041216CD02D4
:1024700039B1F0A3123768A32274F212170E890A39
:10248000E975F017A4FEAFF09002E5E4F09002E3E6
:102490001224F9600A12100C9002E3E4F0A3F0EEAB
:1024A000FAEFFB1210068A088B09EA4509602FEE45
:1024B000FCEFFD7900120F889002E3E508F0A3E538
:1024C00009F07B0080081224E3E4F0A3F00BEBC3D7
:1024D000950A40F2E50A9002E5F07900800279134E
:1024E0000239B1EB75F017A4F8A9F09002E3E028E7
:1024F000FAA3E0398A82F58322122F06EA4B22746E
:10250000F412170E740C12170212378CFEE9FF75C5
:102510000800750900800CE5082401F508E5093478
:1025200000F509C3E5089CE5099D503285080A8538
:10253000090B7403780A1216A4EA250AF8EB350B86
:10254000F988828983A3A3A3A3A3A3123349EE65C9
:102550000A7003EF650B70BFE8FAE9FB80047A00AC
:102560007B00802774F412170E7900EAA2E0501B5A
:1025700075083275098478081219217C047D007A67
:10258000787B0B12079C74021216CD7F040217E0B1
:10259000C082C0839002E61225C3601C88828983B2
:1025A000A3A3E06A7003A3E06B8882898370E8A329
:1025B000A3A3A3122F0280047A007B00D083D082D1
:1025C000020122123A97E8492274EE12170E74FCA7
:1025D0001216B7EAFEEBFF851882851983E4F0A393
:1025E000F0EE2402123254EE240512376FEE24046A
:1025F000F50EEF122B7BE024FE603924FC604624AC
:10260000FE605224FE605E24FE70030226DC24FE7F
:10261000700302274024FE700302274F24FE70033C
:1026200002275E24FC700302276D24FE700302273C
:102630007C0227B99002FF7417F0A3E41227CE1290
:1026400004420227B9851882851983AC82AD8312B2
:1026500007C0022789851882851983AC82AD831251
:1026600007C6022789850C08850D09740212170216
:10267000AC82AD83850882850983122F021206E899
:102680008A0C8B0DAC0CAD0DEC4D603BE4F50CF5FC
:102690000D780C121921750CFF750D02780C1219AA
:1026A00021750C00750D03780C121921740812178E
:1026B00002121938123C131216CDE9F50C700B12E8
:1026C0002EF812045A800F750C0185088285098343
:1026D0001227BC123274850C0802278C7402121760
:1026E00002AC82AD83850C82850D83122CCD603CBB
:1026F000850C82850D83A3A31219387510FF7511FF
:102700000278101219217510007511037810121932
:10271000217408121702121938123C131216CDE94F
:10272000F509700B122EF8120460800F75090185EF
:102730000C82850D831227BC123274850908804CE7
:10274000851882851983AC82AD831207CC803A85C7
:102750001882851983AC82AD831207D2802B85182D
:1027600082851983AC82AD831207D8801C851882BC
:10277000851983AC82AD831207DE800D85188285B2
:102780001983AC82AD831207E4E9F508E5086029F6
:102790008E828F83A3E06414601F850E82850F8371
:1027A000E09002FF1227C6123A939003001232748F
:1027B000E508A31227CE12043C023163123A978532
:1027C000188285198322F085188285198322F07C6E
:1027D000FF7D02850A82850B83122F062274EE127A
:1027E000170E74FC1216B78A0A8B0B8C0E8D0FEA2B
:1027F0002405F508EB3400F5097C157D0079007A95
:10280000FF7B02120F88E5082402F50CE509123758
:10281000728518828519838582108583117810123C
:102820001921850882850983A3A3A3A3122CC412AE
:102830001921E5082405F510E5093400F511781093
:10284000121921850C82850D831230191206E2744B
:10285000061216CD8A108B11AE10AF11E50A2402B4
:10286000F50AE50B123257EE4F700302299B8017D1
:102870007402121702122F0288828983EAF0A3EBF6
:10288000F09002FFE004F09002FFE0C394054003E3
:1028900002299BE4F510F51178101219217510E842
:1028A00075110278101219217510E975110278104E
:1028B00012192174061217021219387910EEFCEF62
:1028C000FD123C151216CDE9705E850882850983DC
:1028D000A3A3A3A3A3A3A3E0F89002E8E068704831
:1028E000122CC41219217CE97D02E5082408FAE5BE
:1028F000093400FB120F8274021216CDE960298E92
:10290000828F83A3A3A3A3122F029002FFE0F510EE
:10291000740278101216A474002510F58274033521
:1029200011F583EAF0A3EBF074021217028582100E
:1029300085831178101219217402121702121938A6
:10294000850C82850D83122F281216CD8A108B11CB
:10295000AE10AF119002FFE0F5107511007402780F
:10296000101216A474FF2510F874023511F988822C
:102970008983A31224F97003022867E82403080856
:1029800008E93400F9EE4F600302287088828983D9
:1029900074FFF0A3F09002FFE004F09002FFE0600B
:1029A0000A122EF812044E7900800B8508828509E0
:1029B0008312326B790A02316374EA12170E74FEC5
:1029C0001216B78C128D13EA2405F50CEB123BFDA1
:1029D00012379B750800750900EA2402F510EB34E4
:1029E00000F51185188285198385820A85830B7805
:1029F0000A121921850C82850D83A3A3A3A3122B90
:102A000091121921E50C2405F50AE50D12325778CB
:102A10000A121921850C82850D83122B951206E26C
:102A200074061216CD8A0A8B0BEA450B7003022B33
:102A300036EA2404F50EEB122B7B12379B8A828B2D
:102A400083A3A3A3E0F9851082851183122F0C6064
:102A500003022B36E4F514F51578141219217514B8
:102A6000E875150278141219217514E975150278A4
:102A70001412192174061217021219387913AC0AAC
:102A8000AD0B851082851183123C1B1216CDE9F522
:102A9000096003022B369002E8E0F8E5087009E0CF
:102AA0002402900300F08014900300E0FCE824026C
:102AB000FAE43400FBEA6C7001EB707E850882AAB0
:102AC00082122CBB9414122CB3506B850E82850F8E
:102AD00083E0C0E074012A122B72D0E0F005088573
:102AE0000E82850F83A3E0C0E085080A7401250AE1
:102AF000122B72D0E0F005089002E8122B91121907
:102B0000217CE97D0285080A7401250A122B8512B1
:102B100016CD9002E8E02508F50874FF6E70037486
:102B2000FF6F6012EE24010EEF3400FFE508C3943E
:102B30001450030229E3E5086013122F1685108252
:102B4000851183122F0212045479008014E5097054
:102B50000375090A851282851383EEF0A3EFF0A9AD
:102B60000974021216CD7F0E0217E085080C74015D
:102B7000250CF58274033400F583223400F50F85AB
:102B80000E82F58322FA74033400FB120F70740274
:102B9000221237D122A3A3122B9B22123262FDEE06
:102BA000FAEFFB2274EE12170E74FE1216B78C0E9B
:102BB0008D0FEA2405F50CEB123772750B009002AD
:102BC000FFE4F0F50AEA2402F508EB3400F5098089
:102BD000449002FFE0FA9002E8E0F8122CBB941750
:102BE000122CB3400D9002FFE0F87416C3989002C7
:102BF000E8F0122CC41219217CE97D0274002AFA33
:102C00007403122B881216CD9002E8E0F89002FFB0
:102C1000E028F0050AE50C2416F582E50D122B7666
:102C2000E0F8E50AC39850749002FFE0C394165090
:102C30006BE50AC333F8E433F9E50C28FEE50D39FA
:102C4000FF851882851983AC82AD838E828F8312B3
:102C50002CCD7008750B011232678050E4F510F529
:102C60001178101219217510E875110278101219D7
:102C7000217510E9751102781012192174061217C6
:102C8000021219387916850882850983123C1B12B5
:102C900016CDE9F50B7003022BD180BB7CFF7D02C2
:102CA000850882850983122F02120466A90B74021B
:102CB000023165E99400C365D03322EA28F8E43490
:102CC00000F9E822E0F51075110078102212315A4F
:102CD0008A108B11AC10AD11EC4D2274EA12170E54
:102CE00074FC1216B78A0C8B0D8C128D13EA240516
:102CF000F50AEB123257750800750900E50A24023F
:102D0000F510E50B3400F511740212170285820EDE
:102D100085830F780E121921850A82850B83A3A360
:102D2000A3A3123777121921E50A2405F50EE50B46
:102D30003400F50F780E1219218510828511831247
:102D4000325D122EFC1206E274061216CD8A0E8B2C
:102D50000FAE0EAF0FE50C2402F50EE50D3400F5B5
:102D60000F80388882898374FFF00508122B6B74FA
:102D7000FFF005089002E8E0F50C750D00780C12E4
:102D800019217CE97D0285080C7401250C122B8524
:102D90001216CD9002E8E02508F508EE4F60278E68
:102DA000828F83A3A3A3E0F9850E82850F83122F60
:102DB0000CEE240412376FE96027850C82850D83A1
:102DC000122EEE123274E5087003022ED4122F1662
:102DD000850E82850F83122F0212046C7900022E59
:102DE000E9E4F514F51578141219217514E8751530
:102DF0000278141219217514E97515027814121944
:102E00002174081217021219387911EEFCEFFD85B2
:102E10000E82850F83123C1B1216CDE9F509709ABC
:102E2000850882AA82EA9002E87009E024049003EF
:102E300000F08025E0F8900300E0F514E82404FC9D
:102E4000E43400FDEC65147001ED7081122CBB942C
:102E500012122CB34003022DCD850C82850D83E028
:102E6000C0E074012A122B72D0E0F00508850C82B4
:102E7000850D83A3E0C0E0122B6BD0E0122F3185CB
:102E8000820C85830D780C1219217404121702121A
:102E90001938851082851183122F281216CD8A0CBD
:102EA0008B0DAE0CAF0D85080C7401250CF8740366
:102EB0003400F9EE4F7003022D6385188285198363
:102EC000E088828983122F31A3E0C0E0122B6BD0FF
:102ED000E0022D71E509700375090A850A82850BE8
:102EE00083122EEE123274A9097404022B63123A73
:102EF00097851282851383227CFF7D02850A828555
:102F00000B83122F0622E0FAA3E0FB22122F0612F7
:102F100006D0E9F50922900300E0F5F0E508849079
:102F200002FFF07CFF7D0222122B9B1206EE74043E
:102F300022F005088518828519832274EC12170E79
:102F400074FE1216B78A088B098C0E8D0FEA2405C1
:102F5000FEEB3400FF123144EE241812376FEA45BD
:102F60000B7003022FE712312D502912300C8A10FA
:102F70008B11EA4511606B7912AC0AAD0B850882A2
:102F8000850983122F0285108285118312170CE99F
:102F9000F50A7058E4F50AF50B780A1219218E82A9
:102FA0008F83A3A3E0F50A780A121921EE240312F5
:102FB0003254780A1219218E828F83123019120826
:102FC0000874061216CDE9F50A7021850C82850D6C
:102FD00083E0701F850882850983122F0212047214
:102FE0008011750A0E8009750A018004E50A6003E4
:102FF000123267850C82850D83E0600479008002BF
:10300000A90A74021216CD7F0C0217E0851882857A
:103010001983122F061207F622123262FD850882EA
:10302000850983122F062274EE12170E74FE1216F3
:10303000B78A088B098C0C8D0DEA2405FEEB340051
:10304000FF750E00123144EA450B700302310B127A
:10305000312D502C12300C8A0E8B0FEA450F604A2E
:103060007912AC0AAD0B850882850983122F02857F
:103070000E82850F8312170CE9F50E600302310EE4
:10308000850882850983123349AA0AFB12311F7011
:10309000147AFF7BFF12311F606C88828983E50AF6
:1030A000F0A3E50BF0750A008007750E0E805F0532
:1030B0000A9002E5E0FAE50AC39A504AE50A75F07B
:1030C00017A4FAABF088828983A3A3E02AFAA3E0CD
:1030D0003BFB8A828B8312325DEC4D70D2750A17EE
:1030E000750B00780A121921EEFCEFFD120F7074B7
:1030F000021216CDEEFCEFFD850882850983122FA2
:10310000021204788014750E098003750E01123ABC
:103110008F850C82850D83123274A90E022CAE129B
:1031200007EA8A108B11A810A911E84922E50824A2
:1031300002F508E5093400F5098A828B83A3A3A36D
:10314000E0A2E522851882851983AC82AD838E8248
:103150008F8312315A8A0A8B0B22E0FAA3E0FB120A
:1031600006E82274041216CD7F0A0217E074EC12EE
:10317000170E8C108D11EA2405F50CEB12377275C1
:103180000F00EA2402F50AEB123257850A82F58312
:10319000122F02123CA17003023249750E00807199
:1031A000850C82850D83E06401704F8E828F83A32E
:1031B000A31219388E828F83A3A3A3A3E0F51275FF
:1031C00013007812121921EE2405F512EF3400F5E0
:1031D000137812121921122EFC1208087406121606
:1031E000CDE9F50F6014850C82850D83E4F0123A69
:1031F0008F8510828511831232747C177D007900CF
:10320000EEFAEFFB120F888E828F83E4F0A3F005B5
:103210000E9002E5E0F8E50EC398501EE50E75F03D
:1032200017A4F8A9F0850882850983A3A3123C0797
:1032300012325DEC4D60030231A08508828509835E
:1032400074FFF0A3F0E50F7006122EFC12047EA9A5
:103250000F023007F50AEF3400F50B22A312326299
:10326000FD22E0FCA3E0228E828F83123A97850E26
:1032700082850F83E8F0A3E9F022C082C083900228
:10328000E1E06A7003A3E06B70067AE17B028004E0
:103290007A007B000225BC74F712170E7F00EF75D1
:1032A000F003A4F8A9F0EC28F8ED39F988828983B5
:1032B000E06A7003A3E06B7006E8FAE9FB800B0F8D
:1032C000EFC3940240D87A007B007F010217E074BC
:1032D000F612170E12388070067A007B008007A362
:1032E000A3A3A3122F0202394174F212170EE9FEB2
:1032F000740E12170212334974101217021237B1EA
:103300008C828D83E06402703BA3123A9388828999
:1033100083E0F50CA3E0F9A80C740268700374292B
:10332000697021750C02750D00780C12192178084E
:10333000121921780A121921EEF912082C740612BA
:1033400016CD800279010239B1E0F50AA3E0F50B50
:103350002274E812170E74FB1216B7E985188285DD
:103360001983F08A168B178C0E8D0F741F1217029B
:103370001237B17421121702123349742312170243
:1033800012379B7510008C828D83A3A3A3E0A2E467
:10339000502A741D1217021230128A828B83E58222
:1033A0004583700302345D790AAC0EAD0FAA16ABEB
:1033B0001712170CE9F5106003023460850E828540
:1033C0000F83E064026003023716A3123A93850864
:1033D00082850983A3858212858313E50E2406F571
:1033E0000CE50F12377288828983E0FAA3E0F9EACC
:1033F0002400F514E439F51578141219AB01000016
:10340000280128253407000228FC3403286C3400E6
:1034100029263601294E360229F535032926360498
:1034200029B7361637EE4F703E850C82850D831214
:10343000378CFAE9FB8A828B83E0850A82850B83CD
:103440001237C81219218A828B83A3123262FDAA15
:1034500008AB09120F7074021216CD800375100E9E
:10346000A9107405023BF575100B80F4EE4F70F750
:10347000850A82850B837401F01237A18508828545
:103480000983F07C007D00850E82850F83A3A3A3B2
:10349000A3E02401FAA3E03400FB1206E8EA4B6043
:1034A000418A828B83E02402F8850A82850B83E0BF
:1034B00028F0EA2404F8EB3400F988828983E08557
:1034C00012828513831237DA1237C81219218A82C1
:1034D0008B8312325CE5082403FAE5093400FB0211
:1034E0003453850A82850B83E02404F07C047D003C
:1034F0007900AA12AB13120F88023460EE4F6003FA
:103500000234671237A1FEA3E0FF850A82850B8390
:103510007404F0EE850882850983F0EF85128285B8
:103520001383F07403121702AC82AD83EEFAEFFB43
:1035300012386E70030235D28A828B83A3A31237AE
:1035400097740112170285820E85830F780E121967
:103550002174051217021219387CFF7DFF1206EE46
:1035600074041216CD8B0FEA450F7033850C8285DB
:103570000D83123777121921850C82850D83A312D2
:1035800019387C027D007AEA7B8412051A740412D1
:1035900016CDE9700A740112170274FFF0A3F08EC1
:1035A000828F83E064027034750C02750D00780C14
:1035B0001219218E828F8312325CE5082404FAE509
:1035C00009122B881216CD850A82850B83E024020E
:1035D00080097401121702EEF0A3EFF074011217C4
:1035E00002123788F07401121702A3123780A3A3C6
:1035F000A3F0023460EE4F6003023467850C8285CD
:103600000D8312325DAA16AB17120820850A828537
:103610000B837402F0EA850882850983F0851282A3
:10362000851383EB80CBEE4F60030234671237A122
:10363000F8A3E0F9850A82850B837402F0E8850817
:1036400082850983F0E985128285138380A3850C26
:1036500082850D83122F02120F6AEAFC8C82A882E7
:10366000C39EE49F404BE86E7001EF70047C0080C5
:103670001F851882851983E0FAEE2AFAEF3400FBE1
:10368000C3EA98EB94005003E08004EECCC39CFCAA
:10369000EC850A82850B83F08C0A750B00780A1280
:1036A0001921850C82850D83E02EFCA3E03F0234B6
:1036B0004E751007023460EE4F6003023467850CCC
:1036C00082850D83123A93850A82850B837407F0F5
:1036D00088828983123780123768E08512828513C9
:1036E00083F0E82402FAE93400FB8A828B831237E4
:1036F000801237B9123788A31237C2123791F0E817
:103700002405F8E93400F988828983123791A312DD
:1037100037DAA30235EE741D1217021238797003DE
:1037200002345D123A93880C890DE8450D7003024E
:10373000345D8E108F117810121921780A12192118
:1037400078081219217406121702E0F9AC0EAD0FB9
:10375000AA16AB17850C82850D8312170C740612FE
:1037600016CDE9F510023460F088828983A322F532
:103770000CEF3400F50D22E0F50E750F00780E22E7
:10378000E0850882850983221237E122123A97E800
:10379000221237E1A3A322A3A3A3A3E0FEA3E0FF89
:1037A00022850C82850D83E0F8A3E0F5838882E012
:1037B00022E0F508A3E0F50922A3A3F08A828B8317
:1037C000A322122474A3A322F08A828B831237D1FE
:1037D00022E0F50A750B00780A221237681237E1E9
:1037E00022E0850882850983A3A32274EE12170EB6
:1037F00074FE1216B78A0A8B0BECFAEDFB741412E6
:103800001702E0F510A3E0F5117416121702E0FE9E
:103810007418121702E0F50EA3E0F50F85188285E3
:103820001983AC82AD8312386E603E85188285198B
:1038300083123879602FA3A31237B1E508450960D8
:1038400024780E1219217810121921EEF9AC0CAD62
:103850000DAA0AAB0B85088285098312170C740424
:103860001216CD8006790E80027901022CAE120666
:10387000E88A0C8B0DEA450D22122F0612388022A1
:103880001207B48A828B83E58245832274F612176D
:103890000E74FE1216B7740C12170212378C8518AC
:1038A00082851983F07401121702E9F0E4F508F536
:1038B0000978081219217508027808121921740470
:1038C00012170285820885830978081219211208C7
:1038D0000874061216CD74021216CD806474F712A5
:1038E000170EEAFEEBFF89087C187D03120820EA18
:1038F0005402600BA908EEFAEFFB1206DC80027995
:10390000010232CA74F612170E74FF6A700374FF54
:103910006B701C7B00EB75F003A4F8A9F0EC28F8A1
:10392000ED39F91239460BEBC39402501480E612BC
:1039300007F08A088B09A808A909E8496003123929
:10394000467F020217E08882898374FF122472E4A2
:10395000F02274F612170E1207F08A828B83E5822A
:1039600045836006A3A3E0FA80027A007B0080D141
:1039700074F212170E8A088B09ECFEEDFF740E121A
:103980001702E0F50A1239B6701CEEFCEFFD7AFF63
:103990007BFF1239B670047911801688828983E51D
:1039A00008F0A3E509F088828983A3A3E50AF079EA
:1039B000007F060217E01207F08A0C8B0DA80CA9F5
:1039C0000DE8492274EE12170EEAFEEBFF8C088D0B
:1039D00009890C7412121702123A93741412170206
:1039E00012325D7416121702122F02750D00EC4D83
:1039F0006003023A877402650C6003023A8288828F
:103A00008983123262F9EC2400F50EE439F50FEAED
:103A1000F4F8EBF4F9EC58F8E50F59F9E849705D62
:103A2000E5082406F8E5093400F9880A890B88823C
:103A3000F583122B971208208A108B11E50E651062
:103A40007004E50F65116042780E121921850A8213
:103A5000850B83122B9712082674021216CDE9F5F6
:103A60000D7027780E121921850882850983A3A37A
:103A7000122B9512083E74021216CD800D750D8022
:103A80008008750D0D8003750D0BA90D0231688E30
:103A9000828F83123A9722E0F8A3E0F92274E812A9
:103AA000170E74E71216B7851882851983EAF0A3FA
:103AB000EBF08C168D17890E7431121702E0F51297
:103AC000A3E0F5137433121702E0F514A3E0F51523
:103AD0007435121702E0F50F750800750900E50945
:103AE00075F003A4F8A9F0851882851983123C07A4
:103AF000E0F47003A3E0F47003023BE5EE2402F56A
:103B00000CEF123BFDE07003023BE585160A8517BA
:103B10000B780A121921AC14AD15AA12AB131207B7
:103B2000A874021216CD8A0A8B0BEA450B700302A9
:103B30003BE5E4F510F511781012192174061217FF
:103B400002858210858311781012192174091217C9
:103B500002858210858311781012192185128285C1
:103B60001383A3A3A3A31219387914AC0AAD0B8E47
:103B7000828F83123C1B1216CDE97069850A8285FB
:103B80000B83A3A3A3A3123A937402121702123257
:103B900074850C82850D83E0A2E05018A90E740292
:103BA000121702AC82AD838E828F83122F0212070E
:103BB00000E94208850C82850D83E0A2E15026E5EC
:103BC0000FF50A780A121925A90E7403121702AC10
:103BD00082AD838E828F83122F021206FA74011235
:103BE00016CDE942080509E509C394025003023ADB
:103BF000DEA90874191216CD7F100217E03400F503
:103C00000D850C82F58322E028FEA3E039FF8E8229
:103C10008F83227916850A82850B83122F0612085C
:103C20000274082274F212170EEAFEEBFF890B747D
:103C300001650B600E7402650B70637901120A183E
:103C4000E9705BEEFAEFFB123CA16047750A008059
:103C50000B7C177D007900120F88050A9002E5E0C1
:103C6000F8E50AC3985021E50A75F017A4F8A9F001
:103C7000850882850983A3A3E028FAA3E039FB8A9B
:103C8000828B831225C370C985088285098374FFDE
:103C9000F0A3F07C187D03EEFAEFFB12081A02394C
:103CA000B11207EA8A088B09EA45092274F2121751
:103CB0000E8A088B09ECFEEDFF740E121702123308
:103CC00049900B76E0F4603D7A097B00120F9AEA86
:103CD0004B60328A828B8374B1F0A3E41237BBA3AA
:103CE0001237B9A3E508F0A3E509123D08EEF0A3E9
:103CF000EF123D08A3A3E50AF0A3E50BF0900B76C5
:103D0000E0F9120FA60239B1F08A828B83A3A3A334
:103D1000A3A322C082C0839061907404F0A374486E
:103D2000F0A37402F09061807440F09061BC740361
:103D3000F09061877419F0906265741BF090619C3B
:103D4000740DF090619A7433F0A37455F09061A0F3
:103D5000743AF090055CE064017009C2919003C66A
:103D6000746780059003C67461F0902336E49390E5
:103D70006186F0902330E493F46027E493540FF8C5
:103D8000906185E0686012E5C654804449F5C6E557
:103D90009E547F644970F8E8F053C680E59E547FD6
:103DA00070FA7905120D54023F28C082C083E5A83D
:103DB000F853A87E906181E4F0A3F0A3F0C2BA5357
:103DC0009AFEC289759B00C2C275E90075910075A3
:103DD000BF0075A91175B905906181F0A374C0F099
:103DE000A3E4F0D2BA439A0174805842A8023F2853
:103DF000C082C08374F81216B79003C4E0F8A3E041
:103E0000F9E8497003023F1E9003C4E05440602368
:103E10007908851882851983AA82AB83120BCE8517
:103E20001882851983AA82AB831208AA9003C4E082
:103E300054BFF0E054806010790C7A807B05120B3F
:103E4000CE9003C4E0547FF0E0A2E0503190619A3C
:103E50007433F0A37455F09061A0743AF090055C4F
:103E6000E064017009C2919003C6746780059003F5
:103E7000C67461F01208B09003C4E054FEF0E05440
:103E800002603190619A743FF0A3745AF09061A07F
:103E9000747FF090055CE064017009D2919003C6D4
:103EA000747180059003C6746AF01208B09003C460
:103EB000E054FDF0E054046013902334E4939061E7
:103EC00086F01208B69003C4E054FBF0E05408609A
:103ED00013902335E493906186F01208B69003C4E2
:103EE000E054F7F0E054106013902336E4939061AF
:103EF00086F01208B69003C4E054EFF0E05420605E
:103F00000A1208B69003C4E054DFF0A3E054016045
:103F10000D120AF61208BC9003C5E054FEF07408B6
:103F20001216CD8003F0A3F0D083D0820201227458
:103F3000EC12170E74F41216B7851882851983AC2B
:103F400082AD8375838475825F74041215CA9023D1
:103F50003493F460030240BC907808E0C3940250AC
:103F60000302409C7404121702AC82AD83758384F3
:103F700075821274081215CA851882851983858284
:103F8000128583137404121702AC82AD83750EFF81
:103F9000750FFF7FFF7E00750C48750D78801574D6
:103FA000086E700302402F74096E700302402F7474
:103FB0000A6E607B850C82850D8378081215878CCC
:103FC000828D83A909E50AC9F88810741878081247
:103FD00014C8E5104508F8C3E098A3E099850C8261
:103FE000850D83780812158740188C828D8374188C
:103FF00078081214C8E5104508F8E0C398F8A3E063
:10400000801C741878081214C8E5104508FAE9FBFA
:104010008C828D83E0F8A3E0F9EAC398F8EB99F974
:10402000C3E8950EE9950F5006880E890FEEFF0E36
:10403000E50C2404F50CE50D3400F50DEEC39413E6
:104040005003023F9F74FF650E700474FF650F609C
:10405000238F08740278081216A474482508F58284
:1040600074783509F58378081215878512828513CF
:1040700083E508F0EC24020C0CED3400FD8512827F
:10408000851383A3858212858313740C121702E5AE
:10409000826C7003E5836D6003023F8D75080175C6
:1040A000090078081219217402121702AC82AD833C
:1040B0007ACD7B0812117474021216CD740C12168C
:1040C000CD7F0C0217E0C082C0839061AE7468F0AF
:1040D000A3746AF090624574FBF0A304F053F4FDFE
:1040E00043FE0290055C7401F09061A0E0643A9098
:1040F000619A70237433F0A37455F09061A0743A00
:10410000F0740164017009C2919003C6746780283D
:104110009003C674618021743FF0A3745AF09061DB
:10412000A0747FF0740164017009D2919003C67489
:104130007180059003C6746A023F277F040217E06E
:10414000C082C08390050EE06401700A900513E000
:104150006004790C80027900023F28C082C0837518
:10416000E1F1900511E06055146008146059146085
:10417000518059120B08900507E0F97A087B051267
:104180000CD690846B1215A5120D0C908493121509
:10419000A5120CE2900512E0F9120CEE7901120D55
:1041A00048900505E02416F8A3E03400F9888289D8
:1041B000837420F0A3740BF07900023F28120B0ED9
:1041C00080B4120B1480AF120B1A80AA791280EA05
:1041D00074F412170E75D90D9004F6E0A2E0E433E2
:1041E0001313F8900507E0C4333354C0484401F575
:1041F000D97805790588828983A3A3A3E0F5D988B6
:10420000828983A3A882A983E8640B7003E964050B
:1042100070E378F6790488828983A3E0F5D98882EF
:104220008983A3A882A983E864FC7003E96404700D
:10423000E575E1959004F6E0F97AF77B04120CDC61
:10424000900B9874BAF0A3740AF0A37416F0A374D8
:104250000CF0A37416F0A3740CF0A37416F0A374FE
:104260000CF0A374C0F0A3740AF0A37416F0A37446
:104270000CF0A374D8F0A3740AF0900BA67416F097
:10428000A3740CF0A37416F0A3740CF0A37416F0CE
:10429000A3740CF0A37416F0A3740CF0A37416F0BE
:1042A000A3740CF0A37416F0A3740CF0900505E051
:1042B000F8A3E0F5838882A3A37808121587908479
:1042C000A7780812151390848B7808121561900551
:1042D00005E0240EF8A3E03400F988828983780889
:1042E000121596900505E02414F8A3E03400F9882F
:1042F0008289837413F09003C27402F002413BC0C0
:1043000082C083900517E02407F5D9900507E0C423
:10431000333354C0F5D97805790588828983A3A3FE
:10432000A3E0F5D988828983A3A882A983E8640BD6
:104330007003E9640570E3900517E0601F78057964
:1043400005FAE82413F582E93400F583E0F5D9880D
:10435000828983A3A882A9831AEA70E6900537E0D0
:104360002407F5D9900507E0C4333354C04404F55D
:10437000D97805790588828983A3A3A3E0F5D98834
:10438000828983A3A882A983E8640B7003E964058A
:1043900070E3900537E0601F78057905FAE824336B
:1043A000F582E93400F583E0F5D988828983A3A8F2
:1043B00082A9831AEA70E675E195900B9874C6F0AD
:1043C000A3740AF0A37416F0A3740CF0A37416F08F
:1043D000A3740CF0A37416F0A3740CF0A374C0F0D3
:1043E000A3740AF0A37416F0A3740CF0A374D8F0AD
:1043F000A3740AF0900BA67416F0A3740CF0A374C7
:1044000016F0A3740CF0A37416F0A3740CF0A3744C
:1044100016F0A3740CF0A37416F0A3740CF0A3743C
:1044200016F0A3740CF09084B71215A5900505E062
:10443000240EF8A3E03400F9888289831215B19024
:104440000505E02414F8A3E03400F9888289837418
:1044500012F09003C27401023F27C082C08390050E
:1044600017E02407F5D9900507E0C4333354C0445E
:1044700002F5D97805790588828983A3A3A3E0F59D
:10448000D988828983A3A882A983E8640B7003E991
:10449000640570E3900517E0601F78057905FAE878
:1044A0002413F582E93400F583E0F5D98882898305
:1044B000A3A882A9831AEA70E675E195900B987417
:1044C000D2F0A3740AF0A374D2F0A3740AF0A37418
:1044D000D2F0A3740AF0A374D2F0A3740AF0A37408
:1044E000D2F0A3740AF0A374D2F0A3740AF0A374F8
:1044F000D8F0A3740AF0900BA67416F0A3740CF015
:10450000A37416F0A3740CF0A37416F0A3740CF04B
:10451000A37416F0A3740CF0A37416F0A3740CF03B
:10452000A37416F0A3740CF09084B71215A590052F
:1045300005E0240EF8A3E03400F98882898312157F
:10454000B1900505E02414F8A3E03400F9888289CD
:10455000837414F09003C27404023F27C082C083A6
:10456000900517E02407F5D9900507E0C4333354CC
:10457000C04406F5D97805790588828983A3A3A369
:10458000E0F5D988828983A3A882A983E8640B70A7
:1045900003E9640570E3900517E0601F780579056D
:1045A000FAE82413F582E93400F583E0F5D988822E
:1045B0008983A3A882A9831AEA70E6900537E024CC
:1045C00007F5D9900507E0C4333354C04404F5D946
:1045D0007805790588828983A3A3A3E0F5D9888229
:1045E0008983A3A882A983E8640B7003E96405703A
:1045F000E3900537E0601F78057905FAE82433F584
:1046000082E93400F583E0F5D988828983A3A88202
:10461000A9831AEA70E675E195900B9874CCF0A323
:10462000740AF0A37416F0A3740CF0A37416F0A32C
:10463000740CF0A37416F0A3740CF0A37416F0A31A
:10464000740CF0A37416F0A3740CF0A374D8F0A348
:10465000740AF0900BA67416F0A3740CF0A37416F1
:10466000F0A3740CF0A37416F0A3740CF0A37416EA
:10467000F0A3740CF0A37416F0A3740CF0A37416DA
:10468000F0A3740CF09084B71215A5900505E024F2
:104690000EF8A3E03400F9888289831215B19005E1
:1046A00005E02414F8A3E03400F9888289837415A6
:1046B000F09003C27403023F27C082C083900505B7
:1046C000E0F8A3E0F5838882A3A3A3A3A3A3E40255
:1046D0003F2574F712170E9003F0E0F875F004A46C
:1046E000C8AAF02AF974F228F8740339F9E8240505
:1046F000FAE93400FB8A828B83E0FCA3E0FD888228
:104700008983A3A3A3A3A3A3A3A3A3ECF0A3EDF086
:1047100088828983A3A3A3A3A3A3A3E024FFF8A370
:10472000E034FFF98A828B83E8F0A3E902497774C9
:10473000F712170EEAFEEBFF9061D0E0600302482B
:104740000C75D90E75D90375D904EE248CF582EF5A
:104750003400F583E5822408F8E5833400F9E0F5B8
:10476000D9A3E865827003E9658370F2EE2484F5CD
:1047700082EF3400F583E5822404F8E5833400F900
:10478000E0F5D9A3E865827003E9658370F275E10D
:10479000957908EE248CFAEF3400FB120BC27904F1
:1047A000EE2484FAEF3400FB120BC27C00EEF8EF2B
:1047B000F9ECFAC3E49AFA95E0FBEE2AFAEF3BFB38
:1047C000EA248BF582EB3400F583E0C0E0E824AB0B
:1047D000F582E93400F583D0E0F00C88828983A368
:1047E000A882A983ECC3940840C7EE2470F582EF39
:1047F0003400F583E0F8A3E0F9EE2472F582EF349B
:1048000000F583E8F0A3E9F079018002790002491C
:1048100078C082C08375D90275D90375D90575E151
:1048200095EA2470F582EB3400F583E0F8A3E0F913
:10483000EA2472F582EB3400F583E8F0A3E9F0791D
:1048400001023F2874F612170EEAFEEBFF90056096
:104850007406F075086075090578081219217C0145
:104860007903120C0A74021216CD75D90675D90394
:10487000758260758305E0F5D9A3E58264657004EF
:10488000E583640570F075E1959003C2E0640870FB
:104890001EEE2470F582EF3400F583E0F8A3E0F912
:1048A000EE2472F582EF3400F583E8F0A3E9F079A5
:1048B00001024A4474F612170EEAFEEBFF9061D033
:1048C000E070667801900560740BF09003C2E064BC
:1048D00007701975086075090578081219217C019F
:1048E0007903120C0A74021216CD7805740128F5AA
:1048F000D975D903758260758305E8FAE0F5D9A307
:104900001AEA70F875E195EE2470F582EF3400F53F
:1049100083E0F8A3E0F9EE2472F582EF3400F5832A
:10492000E8F0A3E9F0790180027900024A4474F7C3
:1049300012170EEAFEEBFF75D90375D90375D90D71
:10494000EE24DEF582EF3400F583E0F5D975E195CC
:104950007904120D12EE2470F582EF3400F583E035
:10496000F8A3E0F9EE2472F582EF3400F583E8F065
:10497000A3E9F079018001F07F010217E074F612DB
:10498000170EEAFEEBFF9061D0E0F87480C398FA4E
:10499000EE2483F582EF3400F583E0600478048030
:1049A000027800E8240BF8EAC3985003024A427DDB
:1049B00009900560EDF0EE24E3F8EF3400F97A6138
:1049C0007B057C0888828983E08A828B83F08882D9
:1049D0008983A3A882A9838A828B83A3AA82AB83BB
:1049E0001CEC70E0EE2483F582EF3400F583E06088
:1049F0001D75086075090578081219217C0979036D
:104A0000EEFAEFFB120C0A74021216CD7D0D740142
:104A10002DF5D975D9037582607583058D08E0F58C
:104A2000D9A31508E50870F675E1957904120D1201
:104A3000EE241DF582EF3400F583E4F0A3F0790154
:104A4000800279007F020217E074F612170EEAFE68
:104A5000EBFF9061D0E0F87480C398FAEE2483F500
:104A600082EF3400F583E06004780480027800E887
:104A70002408F8EAC3985003024B497D069005606C
:104A8000740CF09003DFE0900561F07AE07B03782E
:104A90006279057C028A828B83E088828983F08A2E
:104AA000828B83A3AA82AB8388828983A3A882A9ED
:104AB000831CEC70E07AE27B037C028A828B83E0C9
:104AC00088828983F08A828B83A3AA82AB838882BF
:104AD0008983A3A882A9831CEC70E0EE2483F5826D
:104AE000EF3400F583E0601D7508607509057808EE
:104AF0001219217C067903EEFAEFFB120C0A7402FC
:104B00001216CD7D0A74012DF5D975D90375826011
:104B10007583058D08E0F5D9A31508E50870F675CD
:104B2000E1957904120D12EE2470F582EF3400F550
:104B300083E0F8A3E0F9EE2472F582EF3400F58308
:104B4000E8F0A3E9F0790180027900024A4474F6A2
:104B500012170EEAFEEBFF9061D0E0F87480C39864
:104B6000FAEE2483F582EF3400F583E060047804E4
:104B700080027800E82404F8EAC3985003024C2825
:104B80007802900560E8F0EE24F5F582EF3400F548
:104B900083E0900561F0EE2483F582EF3400F58325
:104BA000E0601B75086075090578081219217C0200
:104BB0007903EEFA120C0A74021216CD780674010B
:104BC00028F5D975D9037582607583058808E0F5E5
:104BD000D9A31508E50870F675E195EE2474F58201
:104BE000EF3400F583E4F0EE2480F582EF3400F535
:104BF00083E4F0EE241DF582EF3400F583E4F0A3A6
:104C0000F07904120D12EE240DF582EF3400F583D5
:104C1000E0F8A3E0F9EE2472F582EF3400F583E8C2
:104C2000F0A3E9F0790180027900024A4474F61297
:104C3000170E9061D0E0F87480C398FCEA2483F5E5
:104C400082EB3400F583E06004780480027800E8A9
:104C50002404F8ECC398405B79029005607407F077
:104C6000EA24F6F582EB3400F583E0900561F0EA82
:104C70002483F582EB3400F583E0601875086075D5
:104C8000090578081219217C0209120C0A74021213
:104C900016CD7906740129F5D975D9037582607529
:104CA0008305E9F8E0F5D9A318E870F875E195797E
:104CB0000180027900024A4474F512170EE9FCA241
:104CC000AFE433F50AC2AF7D0080010DEA246FF531
:104CD00082EB3400F583E0F8EDC398501A8D08EAB2
:104CE0002508F8EB3400F9E8246BF582E93400F587
:104CF00083E06C70D68024EA246FF8EB3400F9E08E
:104D0000FEEA2EFAEB3400FBEA246BF582EB34006A
:104D1000F583ECF088828983E004F0E50AA2E09252
:104D2000AF7F030217E074F612170EA2AFE433FD53
:104D3000C2AFEA246FF582EB3400F583E014F07C17
:104D40000060368C08EA2508F8EB3400F9E8246C9A
:104D5000F582E93400F583E0C0E0E8246BF582E9F0
:104D60003400F583D0E0F00CEA246FF582EB3400D8
:104D7000F583E0F8ECC39840CAEA246EF582EB3480
:104D800000F58374FFF0EA246AF582EB3400F583C2
:104D9000E4F0EDA2E092AF024A44C082C083E5A8ED
:104DA000F8C2AFEA246BF582EB3400F583E9F0EA50
:104DB000246AF582EB3400F583E4F0E8A2E792AFD1
:104DC000023F2874F312170EEAFEEBFFECFAEDFB3C
:104DD0008A828B83A3A3A3A3E0541FF0EE2436F5AD
:104DE00082EF3400F583E4F0F50AEEFCEFFD8A82F1
:104DF0008B83E0C0E0EC245DF582ED3400F583D0D8
:104E0000E0F0750B00E50A33333354F8F50C8A8271
:104E10008B83E0F508750900E50B7808121685E527
:104E200008A2E0502FEE2436F8EF3400F98882898A
:104E300083E0F508EE2508F508EF3400F509E508EC
:104E40002438F582E5093400F583E50CF088828981
:104E500083E004F0050B050CE50BC3940840AF0597
:104E60000A8A828B83A3AA82AB838C828D83A3ACB4
:104E700082AD83E50AC394055003024DEE7F05021F
:104E800017E074F712170E9003EEE0640170077AD2
:104E9000007B00024FF97E009003F4E070F1740192
:104EA000F0A3E4F0A3F090045404F0900457E4F06D
:104EB000A3F090045A04F09003F7E4F0A3F0A3F0F9
:104EC000A3F090040104F0900427E4F090845B12B6
:104ED00015A590040A1215B190040EE4F0A3F0A3F6
:104EE000F0900472F0900466F090045B7480F0A37C
:104EF000E4F0900461F0900459F09004DDF0A3F028
:104F0000A3F0A3F0A3F0A3F0A3F0A3F09004E6F0C5
:104F1000900475F09004C5F0A3F090845B1215A581
:104F20009004C71215B190845B1215A59004CB12A2
:104F300015B19004D1E4F09004D3F09004CFF09038
:104F400004E9F0A3F0A3F0A3F0A3F0A3F0A3F0A36F
:104F5000F078EE7903E8246FF582E93400F5837484
:104F6000FFF00E88828983A3A882A983EEC39404EC
:104F700040E37AEE7B0378FD790488828983E0C080
:104F8000E0EA2461F582EB3400F583D0E0F088821A
:104F90008983A3A882A9838A828B83A3AA82AB83F5
:104FA000E864027003E9640570D07AEE7B0378D57B
:104FB000790388828983A3E0C0E0EA24E7F582EBE5
:104FC0003400F583D0E0F088828983A3A882A98386
:104FD0008A828B83A3AA82AB83E864DD7003E964D1
:104FE0000370CF9003EEE004F0640170089003F6C4
:104FF000E09003F0F07AF27B03024978C082C0832C
:105000009003F5E4F09003F4F09003EEF0A3F0A326
:1050100074FFF075E1F1023F28C082C08378007907
:10502000009003F5E0600478F2790388828983A315
:10503000A3A3A3E0F9023F2874F612170EEAFEEBD1
:10504000FF8E828F83A3A3A3E0600F8E828F83A342
:10505000A3A3E4F09003EFE014F09003EEE014F06B
:1050600070069003F074FFF08E828F83A3A3E4F0A8
:10507000900502E0700D9003EFE064017005790087
:10508000120CF4EE2465F582EF3400F583E0F8A30A
:10509000E0F9E8496029EE2465F8EF3400F9880862
:1050A00089098882F583E0FCA3E0FD9003F0E0FA33
:1050B0007B001208E0850882850983E4F0A3F0EE06
:1050C000FAEFFB120C3A024A4474F712170EEAFE8A
:1050D000EBFF8E828F83A3A3A3A3E0FA7B001209C8
:1050E00022EEFAEFFB120B8C120C22024978C082DE
:1050F000C08378D5790388828983A3E4F088828984
:1051000083A3A882A983E864DD7003E9640370E6E1
:105110009003D602445574F612170EEAFEEBFFEC2C
:105120002403F8ED3400F988088909EC2407F8ED28
:105130003400F9E8FCE9FD8C828D83E0F8A3E0F906
:10514000850882850983E0FAA3E0FB12162CEE2481
:105150000DF582EF3400F583E8F0A3E9F08C828D41
:1051600083E0F8A3E0F9850882850983E0FAA3E0EB
:10517000FB12162C8B09EA45096013EE240DF5820B
:10518000EF3400F583E02401F0A3E03400F0024A9C
:105190004474F612170EEAFEEBFFEE242EF582EFB2
:1051A0003400F583E0FCA3E0FD780079FAECFAED39
:1051B000FB12162CEE2470F582EF3400F583E8F034
:1051C000A3E9F0780079FAECFAEDFB12162C8B09C2
:1051D000EA45096013EE2470F582EF3400F583E0B0
:1051E0002401F0A3E03400F0024A4474F012170ED8
:1051F000EAFEEBFF74101217027808121587120CE2
:10520000B88A0C8B0D8C0E8D0F9084B3780C121510
:105210001390848B780C121561780C12191D8E82F4
:105220008F83E0F8A3E0F5838882A3A31215A5126B
:105230001FD174041216CDE960030253388E828F99
:1052400083E02402F8A3E03400F9E8FAE9FB8A825B
:105250008B83780812152690848B78081215878A1C
:10526000828B837808121574EE240BF582EF3400DC
:10527000F583C082C0838E828F83A3A3A3A3A3E000
:105280002401F8A3E03400F9D083D082E0687003F1
:10529000A3E0697005790102533A8E828F83A3A33C
:1052A000A3A3A3A3A3E02401F0A3E03400F0EE2421
:1052B00074F582EF3400F583E064017036EE2475F6
:1052C000F582EF3400F583E0F8A3E0F98E828F8356
:1052D000A3A3A3A3A3A3A3E0687003A3E06970132F
:1052E000EE2475F582EF3400F583E02401F0A3E0AD
:1052F0003400F0EE2480F582EF3400F583E06401A1
:105300007036EE2481F582EF3400F583E0F8A3E0F7
:10531000F98E828F83A3A3A3A3A3A3A3E068700342
:10532000A3E0697013EE2481F582EF3400F583E089
:105330002401F0A3E03400F079007F080217E07444
:10534000F712170E9003F0E0F875F004A4C8AAF065
:105350002AF974F228FE740339FF8028EE2465F8D8
:10536000EF3400F988828983E0FCA3E0FD8882891C
:1053700083E4F0A3F08E828F83A3A3A3A3E0FA7B40
:10538000001208E0EE2465F582EF3400F583E0F8C2
:10539000A3E0F9E849604FEE2464F582EF3400F5AC
:1053A00083E0F5087808121925EE2463F582EF34BE
:1053B00000F583E0F9EE2465F582EF3400F583E033
:1053C000FCA3E0FDEEFAEFFB120BB674011216CD52
:1053D000E96089EE2465F582EF3400F583E0F8A3F7
:1053E000E0F9E84970137C007D008E828F83A3A3CF
:1053F000A3A3E0FA7B001208E002497874F21217C6
:105400000EEAFEEBFF890A740E121702E0FAEE2490
:1054100062F582EF3400F583E0640160030254C852
:105420009061D0E0F87480C398F50CEE2483F58287
:10543000EF3400F583E06004780480027800890886
:10544000E928F8E43400F9E824020808E93400F90E
:10545000E50C98E499A2D265D0334068EA700575EE
:105460000B028003750B01E06039750900780812A2
:1054700019217A607B05120BEC74021216CD7508A7
:10548000607509057808121921AC0AA90BEEFAEF2C
:10549000FB120C0A74021216CD7404250AF50A7C5C
:1054A000607D057401250AF5D9850BD9E50A600DE3
:1054B0008C828D83F8E0F5D9A318E870F875E19532
:1054C000790080067907800279FF7F060217E0C025
:1054D00082C083E960208C828D83E08A828B83F096
:1054E0008C828D83A3AC82AD838A828B83A3AA82B4
:1054F000AB8319E970E0ECFAEDFB023F2874EA1285
:10550000170E907803E06442705E90055FE014F03F
:105510007056C2AF12551700782AD0E0F618D0E0C6
:10552000F6E59F5407F970059084A3800390849B4F
:105530007808121587E9C4C0E07829E65508F5080F
:1055400008E65509F509740B7808121695D0E02580
:1055500008F8906270E0A2E740F8E8C33390627206
:10556000F0906270E0D2E0F09003F0E0F47003029B
:105570005920E0F875F004A4C8AAF02AF974F228BA
:10558000FE740339FFEE2402F582EF3401F583E067
:10559000F8A3E0F9E849601EEE2402F582EF340139
:1055A000F583E0FAA3E0FBEE2401F582EF3401F588
:1055B00083E0F9120FCA8E828F83A3A3A3A3A3A3B0
:1055C000A3E0F8A3E0F98E828F83A3A3A3A3A3E8AB
:1055D000F0A3E9F0906054E09003C9F0906055E0CA
:1055E0009003CAF0906056E09003CBF0906057E0D3
:1055F0009003CCF0906058E09003CDF0906059E0BB
:105600009003CEF090605AE09003CFF090605BE0A2
:105610009003D0F090605CE0FC9003D1F090605D6E
:10562000E0FB9003D2F090605EE0FD9003D3F09039
:10563000605FE0FA9003D4F09003CFE08C08250877
:10564000F8E43400F98D08E82508F8E93400F98B0E
:1056500008E82508F8E93400F98A08E82508FAE995
:105660003400FBEE24F7F582EF3400F583E02AF0F6
:10567000A3E03BF08C08EE24F9F582EF3400F583CB
:10568000E02508F0A3E03400F0EE24FBF582EF34CF
:1056900000F583E02401F0A3E03400F0EE24FFF5F0
:1056A00082EF3400F583E0F8A3E0F9E84960429026
:1056B0006000E0C333FCE433FDE82CF582E93DF5FE
:1056C00083E02AF0A3E03BF0906000E0FA9003D181
:1056D000E0FCEAC333FAE433FBE82AF8E93BF9E8F3
:1056E000244AF582E93400F583E02CF0A3E034008D
:1056F000F09003CFE070119003D2E0700BA3E07044
:1057000007A3E070030258008E828F83A3A3A3A394
:10571000A3E0F8A3E0F9EE240DF582EF3400F58361
:10572000E028F8A3E039F9EE240BF582EF3400F518
:1057300083E8F0A3E9F0EE240FF582EF3400F5835F
:10574000E4F0EE241CF582EF3400F583E064017090
:105750001EEE2420F582EF3400F583E0F8A3E0F993
:10576000EE241DF582EF3400F583E8F0A3E9F09014
:1057700003CAE06052EE241CF582EF3400F5837416
:1057800001F0EE246AF582EF3400F583E07038EE24
:105790002474F582EF3400F583E0702BEE2480F55D
:1057A00082EF3400F583E0701EEE2420F582EF34A2
:1057B00000F583E0F8A3E0F9EE241DF582EF340054
:1057C000F583E8F0A3E9F0906062E070030258B35B
:1057D0008E828F83E0F8A3E0F9E82406FCE9340028
:1057E000FDE82402FAE93400FB120CB28E828F83AA
:1057F000E02412F8A3E03400F9888289830258BDBE
:105800009003D1E0603AEE240FF582EF3400F58387
:10581000E4F0EE241CF582EF3400F583E0640170BF
:1058200040EE2420F582EF3400F583E0F8A3E0F9A0
:10583000EE241DF582EF3400F583E8F0A3E9802023
:10584000EE24FDF582EF3400F583E02401F0A3E0BF
:105850003400F0EE241DF582EF3400F583E4F0A36C
:10586000F0EE240BF582EF3400F583E0F8A3E0F9C5
:105870008E828F83A3A3A3A3A3E0687003A3E06930
:10588000600302576FEE240FF582EF3400F583E0DA
:1058900060128E828F83A3A3A3A3A3E0640570028A
:1058A000A3E0600B7908EEFAEFFB120B928071799E
:1058B0003E80F3EE241DF582EF3400F583E4F0A37F
:1058C000F0906060E0C0E0EE2469F582EF3400F50E
:1058D00083D0E0F09003CFE0F8EE2467F582EF3458
:1058E00000F583E028025A2090055DE064017035E0
:1058F000120D60EE2467F582EF3400F583E0700648
:105900009060607480F0EEFAEFFB120C7CE96401A9
:10591000600E120BB0120C76E964016003120C22C7
:105920007F0E0217E0EE2483F582EF3400F583E06A
:105930006004780480027800E50CC398F91208D45A
:105940008A0A8B0BEA450B60A7EE2483F582EF34BD
:1059500000F583E070048A088B09E50C6012850865
:1059600082850983F512E5D9F0A31512E51270F6C8
:10597000EE2483F582EF3400F583E0603774FC2574
:105980000CF50C7808121921AC0CA90DEEFAEFFBFE
:10599000120C1074021216CDE970197403650D70A3
:1059A00003025A60E50A24FBFAE50B34FFFB1210F0
:1059B0000C025A607403650D7003025A65850C0E63
:1059C000750F00780E121921AC08AD09AA0AAB0BAD
:1059D000120BEC74021216CDEE2469F582EF34003E
:1059E000F583E064807004747F8001E0F508780836
:1059F000121925E50DF5087808121925A90CAC0A2D
:105A0000AD0B9003F0E0FA7B001208DA7402121674
:105A1000CD120D6CEE2467F582EF3400F583E014AF
:105A2000F0E07003025900750860750905750A00F9
:105A3000750B00E5D914F50CE5D95403F50D60207C
:105A40007403650D700302595AE50C70030258E89F
:105A5000EE2468F582EF3400F583E060030258E835
:105A6000793D0258A6850882850983E0F8A38582DE
:105A700008858309603B147003025C5D14700302A7
:105A80005F51147003025CBB24FD7003025DDB14E4
:105A90007003025A11147003025E3124FE70030277
:105AA0005DEA147003025E2C147003025EC6025E8F
:105AB000D5EE2477F510EF3400F511E085108285DE
:105AC0001183F0850882850983A38582088583096F
:105AD000EE2478F50EEF3400F50F7902AC08AD092D
:105AE000AA0EFB120BBC8A088B09EE247AF50CEF88
:105AF0003400F50D7902AC08AD09AA0CFB120BBC01
:105B00008A088B097902AC08AD09EE247CFAEF34DF
:105B100000FB120BBC8A088B09EE247EF50AEF34D9
:105B200000F50B7902AC08AD09AA0AFB120BBC8A7E
